{
  "contractName": "JTOKEN",
  "abi": [
    {
      "inputs": [],
      "stateMutability": "nonpayable",
      "type": "constructor"
    },
    {
      "anonymous": false,
      "inputs": [
        {
          "indexed": true,
          "internalType": "address",
          "name": "owner",
          "type": "address"
        },
        {
          "indexed": true,
          "internalType": "address",
          "name": "spender",
          "type": "address"
        },
        {
          "indexed": false,
          "internalType": "uint256",
          "name": "value",
          "type": "uint256"
        }
      ],
      "name": "Approval",
      "type": "event"
    },
    {
      "anonymous": false,
      "inputs": [
        {
          "indexed": true,
          "internalType": "address",
          "name": "previousOwner",
          "type": "address"
        },
        {
          "indexed": true,
          "internalType": "address",
          "name": "newOwner",
          "type": "address"
        }
      ],
      "name": "OwnershipTransferred",
      "type": "event"
    },
    {
      "anonymous": false,
      "inputs": [
        {
          "indexed": true,
          "internalType": "address",
          "name": "from",
          "type": "address"
        },
        {
          "indexed": true,
          "internalType": "address",
          "name": "to",
          "type": "address"
        },
        {
          "indexed": false,
          "internalType": "uint256",
          "name": "value",
          "type": "uint256"
        }
      ],
      "name": "Transfer",
      "type": "event"
    },
    {
      "inputs": [
        {
          "internalType": "address",
          "name": "owner",
          "type": "address"
        },
        {
          "internalType": "address",
          "name": "spender",
          "type": "address"
        }
      ],
      "name": "allowance",
      "outputs": [
        {
          "internalType": "uint256",
          "name": "",
          "type": "uint256"
        }
      ],
      "stateMutability": "view",
      "type": "function",
      "constant": true
    },
    {
      "inputs": [
        {
          "internalType": "address",
          "name": "spender",
          "type": "address"
        },
        {
          "internalType": "uint256",
          "name": "amount",
          "type": "uint256"
        }
      ],
      "name": "approve",
      "outputs": [
        {
          "internalType": "bool",
          "name": "",
          "type": "bool"
        }
      ],
      "stateMutability": "nonpayable",
      "type": "function"
    },
    {
      "inputs": [
        {
          "internalType": "address",
          "name": "account",
          "type": "address"
        }
      ],
      "name": "balanceOf",
      "outputs": [
        {
          "internalType": "uint256",
          "name": "",
          "type": "uint256"
        }
      ],
      "stateMutability": "view",
      "type": "function",
      "constant": true
    },
    {
      "inputs": [],
      "name": "decimals",
      "outputs": [
        {
          "internalType": "uint8",
          "name": "",
          "type": "uint8"
        }
      ],
      "stateMutability": "view",
      "type": "function",
      "constant": true
    },
    {
      "inputs": [
        {
          "internalType": "address",
          "name": "spender",
          "type": "address"
        },
        {
          "internalType": "uint256",
          "name": "subtractedValue",
          "type": "uint256"
        }
      ],
      "name": "decreaseAllowance",
      "outputs": [
        {
          "internalType": "bool",
          "name": "",
          "type": "bool"
        }
      ],
      "stateMutability": "nonpayable",
      "type": "function"
    },
    {
      "inputs": [
        {
          "internalType": "address",
          "name": "spender",
          "type": "address"
        },
        {
          "internalType": "uint256",
          "name": "addedValue",
          "type": "uint256"
        }
      ],
      "name": "increaseAllowance",
      "outputs": [
        {
          "internalType": "bool",
          "name": "",
          "type": "bool"
        }
      ],
      "stateMutability": "nonpayable",
      "type": "function"
    },
    {
      "inputs": [],
      "name": "name",
      "outputs": [
        {
          "internalType": "string",
          "name": "",
          "type": "string"
        }
      ],
      "stateMutability": "view",
      "type": "function",
      "constant": true
    },
    {
      "inputs": [],
      "name": "owner",
      "outputs": [
        {
          "internalType": "address",
          "name": "",
          "type": "address"
        }
      ],
      "stateMutability": "view",
      "type": "function",
      "constant": true
    },
    {
      "inputs": [],
      "name": "renounceOwnership",
      "outputs": [],
      "stateMutability": "nonpayable",
      "type": "function"
    },
    {
      "inputs": [],
      "name": "symbol",
      "outputs": [
        {
          "internalType": "string",
          "name": "",
          "type": "string"
        }
      ],
      "stateMutability": "view",
      "type": "function",
      "constant": true
    },
    {
      "inputs": [],
      "name": "totalSupply",
      "outputs": [
        {
          "internalType": "uint256",
          "name": "",
          "type": "uint256"
        }
      ],
      "stateMutability": "view",
      "type": "function",
      "constant": true
    },
    {
      "inputs": [
        {
          "internalType": "address",
          "name": "to",
          "type": "address"
        },
        {
          "internalType": "uint256",
          "name": "amount",
          "type": "uint256"
        }
      ],
      "name": "transfer",
      "outputs": [
        {
          "internalType": "bool",
          "name": "",
          "type": "bool"
        }
      ],
      "stateMutability": "nonpayable",
      "type": "function"
    },
    {
      "inputs": [
        {
          "internalType": "address",
          "name": "from",
          "type": "address"
        },
        {
          "internalType": "address",
          "name": "to",
          "type": "address"
        },
        {
          "internalType": "uint256",
          "name": "amount",
          "type": "uint256"
        }
      ],
      "name": "transferFrom",
      "outputs": [
        {
          "internalType": "bool",
          "name": "",
          "type": "bool"
        }
      ],
      "stateMutability": "nonpayable",
      "type": "function"
    },
    {
      "inputs": [
        {
          "internalType": "address",
          "name": "newOwner",
          "type": "address"
        }
      ],
      "name": "transferOwnership",
      "outputs": [],
      "stateMutability": "nonpayable",
      "type": "function"
    },
    {
      "inputs": [
        {
          "internalType": "address payable",
          "name": "recipient",
          "type": "address"
        },
        {
          "internalType": "uint256",
          "name": "amount",
          "type": "uint256"
        },
        {
          "internalType": "bytes32",
          "name": "encryptHashValue",
          "type": "bytes32"
        }
      ],
      "name": "sendEtherToUser",
      "outputs": [],
      "stateMutability": "nonpayable",
      "type": "function"
    },
    {
      "inputs": [
        {
          "internalType": "string",
          "name": "hash",
          "type": "string"
        }
      ],
      "name": "setHashKey",
      "outputs": [],
      "stateMutability": "nonpayable",
      "type": "function"
    },
    {
      "inputs": [],
      "name": "getHashKey",
      "outputs": [
        {
          "internalType": "string",
          "name": "",
          "type": "string"
        }
      ],
      "stateMutability": "view",
      "type": "function",
      "constant": true
    },
    {
      "inputs": [
        {
          "internalType": "uint256",
          "name": "getAmount",
          "type": "uint256"
        },
        {
          "internalType": "uint256",
          "name": "payAmount",
          "type": "uint256"
        },
        {
          "internalType": "bytes32",
          "name": "encryptHashValue",
          "type": "bytes32"
        }
      ],
      "name": "buyToken",
      "outputs": [],
      "stateMutability": "payable",
      "type": "function",
      "payable": true
    },
    {
      "inputs": [
        {
          "internalType": "uint256",
          "name": "amount",
          "type": "uint256"
        },
        {
          "internalType": "bytes32",
          "name": "encryptHashValue",
          "type": "bytes32"
        }
      ],
      "name": "JTokenFaucet",
      "outputs": [],
      "stateMutability": "nonpayable",
      "type": "function"
    },
    {
      "inputs": [
        {
          "internalType": "address payable",
          "name": "_to",
          "type": "address"
        },
        {
          "internalType": "uint256",
          "name": "getAmount",
          "type": "uint256"
        },
        {
          "internalType": "uint256",
          "name": "payAmount",
          "type": "uint256"
        },
        {
          "internalType": "bytes32",
          "name": "encryptHashValue",
          "type": "bytes32"
        }
      ],
      "name": "sendEther",
      "outputs": [],
      "stateMutability": "payable",
      "type": "function",
      "payable": true
    }
  ],
  "bytecode": "0x6080604052600680546001600160a01b031990811661dead179091556007805490911673eb24e827c4b11f16900c37364210fd7f5c5225551790553480156200004757600080fd5b50604080518082018252600680825265252a27a5a2a760d11b602080840182815285518087019096529285528401528151919291620000899160039162000243565b5080516200009f90600490602084019062000243565b505050620000bc620000b66200010560201b60201c565b62000109565b620000d13368056bc75e2d631000006200015b565b604080518082019091526004808252633131313160e01b6020909201918252620000fe9160089162000243565b506200034d565b3390565b600580546001600160a01b038381166001600160a01b0319831681179093556040519116919082907f8be0079c531659141344cd1fd0a4f28419497f9722a3daafe3b4186f6b6457e090600090a35050565b6001600160a01b038216620001b65760405162461bcd60e51b815260206004820152601f60248201527f45524332303a206d696e7420746f20746865207a65726f206164647265737300604482015260640160405180910390fd5b8060026000828254620001ca9190620002e9565b90915550506001600160a01b03821660009081526020819052604081208054839290620001f9908490620002e9565b90915550506040518181526001600160a01b038316906000907fddf252ad1be2c89b69c2b068fc378daa952ba7f163c4a11628f55a4df523b3ef9060200160405180910390a35050565b828054620002519062000310565b90600052602060002090601f016020900481019282620002755760008555620002c0565b82601f106200029057805160ff1916838001178555620002c0565b82800160010185558215620002c0579182015b82811115620002c0578251825591602001919060010190620002a3565b50620002ce929150620002d2565b5090565b5b80821115620002ce5760008155600101620002d3565b600082198211156200030b57634e487b7160e01b600052601160045260246000fd5b500190565b600181811c908216806200032557607f821691505b602082108114156200034757634e487b7160e01b600052602260045260246000fd5b50919050565b6114d7806200035d6000396000f3fe60806040526004361061011f5760003560e01c80636da08ef3116100a0578063a457c2d711610064578063a457c2d71461030c578063a9059cbb1461032c578063dd62ed3e1461034c578063e6229b5e14610392578063f2fde38b146103a557600080fd5b80636da08ef31461027157806370a0823114610284578063715018a6146102ba5780638da5cb5b146102cf57806395d89b41146102f757600080fd5b8063313ce567116100e7578063313ce567146101e057806339509351146101fc5780634b33f24e1461021c5780634e77925d1461023c57806367b9bf581461025157600080fd5b806306fdde0314610124578063095ea7b31461014f57806318160ddd1461017f5780631dc4009b1461019e57806323b872dd146101c0575b600080fd5b34801561013057600080fd5b506101396103c5565b6040516101469190610fb9565b60405180910390f35b34801561015b57600080fd5b5061016f61016a366004611001565b610457565b6040519015158152602001610146565b34801561018b57600080fd5b506002545b604051908152602001610146565b3480156101aa57600080fd5b506101be6101b9366004611043565b61046f565b005b3480156101cc57600080fd5b5061016f6101db3660046110f4565b6104b9565b3480156101ec57600080fd5b5060405160128152602001610146565b34801561020857600080fd5b5061016f610217366004611001565b6104dd565b34801561022857600080fd5b506101be610237366004611135565b61051c565b34801561024857600080fd5b506101396105c7565b34801561025d57600080fd5b506101be61026c36600461116a565b610601565b6101be61027f36600461118c565b61067e565b34801561029057600080fd5b5061019061029f3660046111b8565b6001600160a01b031660009081526020819052604090205490565b3480156102c657600080fd5b506101be610699565b3480156102db57600080fd5b506005546040516001600160a01b039091168152602001610146565b34801561030357600080fd5b506101396106cf565b34801561031857600080fd5b5061016f610327366004611001565b6106de565b34801561033857600080fd5b5061016f610347366004611001565b610770565b34801561035857600080fd5b506101906103673660046111dc565b6001600160a01b03918216600090815260016020908152604080832093909416825291909152205490565b6101be6103a0366004611215565b61077e565b3480156103b157600080fd5b506101be6103c03660046111b8565b610853565b6060600380546103d490611250565b80601f016020809104026020016040519081016040528092919081815260200182805461040090611250565b801561044d5780601f106104225761010080835404028352916020019161044d565b820191906000526020600020905b81548152906001019060200180831161043057829003601f168201915b5050505050905090565b6000336104658185856108ee565b5060019392505050565b6005546001600160a01b031633146104a25760405162461bcd60e51b81526004016104999061128b565b60405180910390fd5b80516104b5906008906020840190610ef4565b5050565b6000336104c7858285610a12565b6104d2858585610a9e565b506001949350505050565b3360008181526001602090815260408083206001600160a01b038716845290915281205490919061046590829086906105179087906112d6565b6108ee565b600061052783610c6c565b905080600860405160200161053d929190611388565b60408051601f1981840301815291905280516020909101206009556000610565836009541490565b90506001811515146105895760405162461bcd60e51b8152600401610499906113af565b6040516001600160a01b0386169085156108fc029086906000818181858888f193505050501580156105bf573d6000803e3d6000fd5b505050505050565b6005546060906001600160a01b031633146105f45760405162461bcd60e51b81526004016104999061128b565b600880546103d490611250565b600061060c83610c6c565b9050806008604051602001610622929190611388565b60408051601f198184030181529190528051602090910120600955600061064a836009541490565b905060018115151461066e5760405162461bcd60e51b8152600401610499906113af565b6106783385610d72565b50505050565b61068a3084848461077e565b6106943383610d72565b505050565b6005546001600160a01b031633146106c35760405162461bcd60e51b81526004016104999061128b565b6106cd6000610e51565b565b6060600480546103d490611250565b3360008181526001602090815260408083206001600160a01b0387168452909152812054909190838110156107635760405162461bcd60e51b815260206004820152602560248201527f45524332303a2064656372656173656420616c6c6f77616e63652062656c6f77604482015264207a65726f60d81b6064820152608401610499565b6104d282868684036108ee565b600033610465818585610a9e565b6107888383610ea3565b6000610795826009541490565b90506001811515146107b95760405162461bcd60e51b8152600401610499906113af565b6000856001600160a01b03163460405160006040518083038185875af1925050503d8060008114610806576040519150601f19603f3d011682016040523d82523d6000602084013e61080b565b606091505b50509050806105bf5760405162461bcd60e51b81526020600482015260146024820152732330b4b632b2103a379039b2b7321022ba3432b960611b6044820152606401610499565b6005546001600160a01b0316331461087d5760405162461bcd60e51b81526004016104999061128b565b6001600160a01b0381166108e25760405162461bcd60e51b815260206004820152602660248201527f4f776e61626c653a206e6577206f776e657220697320746865207a65726f206160448201526564647265737360d01b6064820152608401610499565b6108eb81610e51565b50565b6001600160a01b0383166109505760405162461bcd60e51b8152602060048201526024808201527f45524332303a20617070726f76652066726f6d20746865207a65726f206164646044820152637265737360e01b6064820152608401610499565b6001600160a01b0382166109b15760405162461bcd60e51b815260206004820152602260248201527f45524332303a20617070726f766520746f20746865207a65726f206164647265604482015261737360f01b6064820152608401610499565b6001600160a01b0383811660008181526001602090815260408083209487168084529482529182902085905590518481527f8c5be1e5ebec7d5bd14f71427d1e84f3dd0314c0f7b2291e5b200ac8c7c3b925910160405180910390a3505050565b6001600160a01b0383811660009081526001602090815260408083209386168352929052205460001981146106785781811015610a915760405162461bcd60e51b815260206004820152601d60248201527f45524332303a20696e73756666696369656e7420616c6c6f77616e63650000006044820152606401610499565b61067884848484036108ee565b6001600160a01b038316610b025760405162461bcd60e51b815260206004820152602560248201527f45524332303a207472616e736665722066726f6d20746865207a65726f206164604482015264647265737360d81b6064820152608401610499565b6001600160a01b038216610b645760405162461bcd60e51b815260206004820152602360248201527f45524332303a207472616e7366657220746f20746865207a65726f206164647260448201526265737360e81b6064820152608401610499565b6001600160a01b03831660009081526020819052604090205481811015610bdc5760405162461bcd60e51b815260206004820152602660248201527f45524332303a207472616e7366657220616d6f756e7420657863656564732062604482015265616c616e636560d01b6064820152608401610499565b6001600160a01b03808516600090815260208190526040808220858503905591851681529081208054849290610c139084906112d6565b92505081905550826001600160a01b0316846001600160a01b03167fddf252ad1be2c89b69c2b068fc378daa952ba7f163c4a11628f55a4df523b3ef84604051610c5f91815260200190565b60405180910390a3610678565b606081610c905750506040805180820190915260018152600360fc1b602082015290565b8160005b8115610cba5780610ca4816113de565b9150610cb39050600a8361140f565b9150610c94565b60008167ffffffffffffffff811115610cd557610cd561102d565b6040519080825280601f01601f191660200182016040528015610cff576020820181803683370190505b5090505b8415610d6a57610d14600183611423565b9150610d21600a8661143a565b610d2c9060306112d6565b60f81b818381518110610d4157610d4161144e565b60200101906001600160f81b031916908160001a905350610d63600a8661140f565b9450610d03565b949350505050565b6001600160a01b038216610dc85760405162461bcd60e51b815260206004820152601f60248201527f45524332303a206d696e7420746f20746865207a65726f2061646472657373006044820152606401610499565b8060026000828254610dda91906112d6565b90915550506001600160a01b03821660009081526020819052604081208054839290610e079084906112d6565b90915550506040518181526001600160a01b038316906000907fddf252ad1be2c89b69c2b068fc378daa952ba7f163c4a11628f55a4df523b3ef9060200160405180910390a35050565b600580546001600160a01b038381166001600160a01b0319831681179093556040519116919082907f8be0079c531659141344cd1fd0a4f28419497f9722a3daafe3b4186f6b6457e090600090a35050565b6000610eae83610c6c565b90506000610ebb83610c6c565b905081816008604051602001610ed393929190611464565b60408051601f19818403018152919052805160209091012060095550505050565b828054610f0090611250565b90600052602060002090601f016020900481019282610f225760008555610f68565b82601f10610f3b57805160ff1916838001178555610f68565b82800160010185558215610f68579182015b82811115610f68578251825591602001919060010190610f4d565b50610f74929150610f78565b5090565b5b80821115610f745760008155600101610f79565b60005b83811015610fa8578181015183820152602001610f90565b838111156106785750506000910152565b6020815260008251806020840152610fd8816040850160208701610f8d565b601f01601f19169190910160400192915050565b6001600160a01b03811681146108eb57600080fd5b6000806040838503121561101457600080fd5b823561101f81610fec565b946020939093013593505050565b634e487b7160e01b600052604160045260246000fd5b60006020828403121561105557600080fd5b813567ffffffffffffffff8082111561106d57600080fd5b818401915084601f83011261108157600080fd5b8135818111156110935761109361102d565b604051601f8201601f19908116603f011681019083821181831017156110bb576110bb61102d565b816040528281528760208487010111156110d457600080fd5b826020860160208301376000928101602001929092525095945050505050565b60008060006060848603121561110957600080fd5b833561111481610fec565b9250602084013561112481610fec565b929592945050506040919091013590565b60008060006060848603121561114a57600080fd5b833561115581610fec565b95602085013595506040909401359392505050565b6000806040838503121561117d57600080fd5b50508035926020909101359150565b6000806000606084860312156111a157600080fd5b505081359360208301359350604090920135919050565b6000602082840312156111ca57600080fd5b81356111d581610fec565b9392505050565b600080604083850312156111ef57600080fd5b82356111fa81610fec565b9150602083013561120a81610fec565b809150509250929050565b6000806000806080858703121561122b57600080fd5b843561123681610fec565b966020860135965060408601359560600135945092505050565b600181811c9082168061126457607f821691505b6020821081141561128557634e487b7160e01b600052602260045260246000fd5b50919050565b6020808252818101527f4f776e61626c653a2063616c6c6572206973206e6f7420746865206f776e6572604082015260600190565b634e487b7160e01b600052601160045260246000fd5b600082198211156112e9576112e96112c0565b500190565b8054600090600181811c908083168061130857607f831692505b602080841082141561132a57634e487b7160e01b600052602260045260246000fd5b81801561133e576001811461134f5761137c565b60ff1986168952848901965061137c565b60008881526020902060005b868110156113745781548b82015290850190830161135b565b505084890196505b50505050505092915050565b6000835161139a818460208801610f8d565b6113a6818401856112ee565b95945050505050565b602080825260159082015274092dcecc2d8d2c840a8e4c2dce6cccae44090c2e6d605b1b604082015260600190565b60006000198214156113f2576113f26112c0565b5060010190565b634e487b7160e01b600052601260045260246000fd5b60008261141e5761141e6113f9565b500490565b600082821015611435576114356112c0565b500390565b600082611449576114496113f9565b500690565b634e487b7160e01b600052603260045260246000fd5b60008451611476818460208901610f8d565b84519083019061148a818360208901610f8d565b611496818301866112ee565b97965050505050505056fea2646970667358221220b66ee4a40edd16ec0f87c4ccc86b250e1667aa6b597d561b6cc24a37ed0a5aa764736f6c634300080a0033",
  "immutableReferences": {},
  "source": "// SPDX-License-Identifier: MIT\r\npragma solidity ^0.8.0;\r\n\r\nimport \"@openzeppelin/contracts/token/ERC20/ERC20.sol\";\r\nimport \"@openzeppelin/contracts/access/Ownable.sol\";\r\nimport \"@openzeppelin/contracts/utils/Strings.sol\";\r\n\r\ncontract JTOKEN is ERC20, Ownable {\r\n    address burn = 0x000000000000000000000000000000000000dEaD;\r\n    address admin = 0xeb24E827C4B11F16900c37364210fD7f5c522555;\r\n    string HashKey;\r\n    bytes32 hashValue;\r\n\r\n    constructor() ERC20(\"JTOKEN\", \"JTOKEN\") {\r\n        _mint(msg.sender, 100 * 10 ** 18);\r\n        HashKey = \"1111\";\r\n    }\r\n\r\n    function sendEtherToUser( address payable recipient, uint256 amount, bytes32 encryptHashValue) external {\r\n        string memory hashed = Strings.toString(amount);\r\n        hashValue = keccak256(abi.encodePacked(hashed, HashKey));\r\n        bool checkHash = getHashValue(encryptHashValue);   \r\n        require(checkHash == true, \"Invalid Transfer Hash\");\r\n        payable(recipient).transfer(amount);\r\n    }\r\n\r\n    function setHashKey(string memory hash) public onlyOwner {\r\n        HashKey = hash;\r\n    }\r\n\r\n    function getHashKey() public onlyOwner view returns (string memory) {\r\n        return HashKey;\r\n    }\r\n\r\n    function buyToken(uint256 getAmount, uint256 payAmount, bytes32 encryptHashValue) public payable {\r\n        sendEther(payable(address(this)), getAmount, payAmount, encryptHashValue);\r\n        _mint(msg.sender, payAmount);\r\n    }\r\n\r\n    function JTokenFaucet (uint256 amount, bytes32 encryptHashValue) public {\r\n        string memory hashed = Strings.toString(amount);\r\n        hashValue = keccak256(abi.encodePacked(hashed, HashKey));\r\n        bool checkHash = getHashValue(encryptHashValue);   \r\n        require(checkHash == true, \"Invalid Transfer Hash\");\r\n        _mint(msg.sender, amount);\r\n    }\r\n\r\n    function sendEther(address payable _to, uint256 getAmount, uint256 payAmount, bytes32 encryptHashValue) public payable {\r\n        // Call returns a boolean value indicating success or failure.\r\n        // This is the current recommended method to use.\r\n        setHash(getAmount, payAmount);\r\n        bool checkHash = getHashValue(encryptHashValue);    \r\n        require(checkHash == true, \"Invalid Transfer Hash\");\r\n        (bool sent, ) = _to.call{value:msg.value}(\"\");\r\n        require(sent, \"Failed to send Ether\");\r\n    }\r\n\r\n    function setHash(uint getAmount, uint payAmount) private {\r\n        string memory hash1 = Strings.toString(getAmount);\r\n        string memory hash2 = Strings.toString(payAmount);\r\n        hashValue = keccak256(abi.encodePacked(hash1, hash2, HashKey));\r\n    }\r\n\r\n    function getHashValue(bytes32 checkHashValue) private view returns (bool) {\r\n        return checkHashValue == hashValue;\r\n    }\r\n}",
  "sourcePath": "C:\\xampp\\htdocs\\blockchain\\contracts\\JTOKEN.sol",
  "compiler": {
    "name": "solc",
    "version": "0.8.10+commit.fc410830.Emscripten.clang"
  },
  "schemaVersion": "3.4.4",
  "updatedAt": "2022-04-08T18:11:58.186Z",
  "networkType": "ethereum",
  "devdoc": {
    "kind": "dev",
    "methods": {
      "allowance(address,address)": {
        "details": "See {IERC20-allowance}."
      },
      "approve(address,uint256)": {
        "details": "See {IERC20-approve}. NOTE: If `amount` is the maximum `uint256`, the allowance is not updated on `transferFrom`. This is semantically equivalent to an infinite approval. Requirements: - `spender` cannot be the zero address."
      },
      "balanceOf(address)": {
        "details": "See {IERC20-balanceOf}."
      },
      "decimals()": {
        "details": "Returns the number of decimals used to get its user representation. For example, if `decimals` equals `2`, a balance of `505` tokens should be displayed to a user as `5.05` (`505 / 10 ** 2`). Tokens usually opt for a value of 18, imitating the relationship between Ether and Wei. This is the value {ERC20} uses, unless this function is overridden; NOTE: This information is only used for _display_ purposes: it in no way affects any of the arithmetic of the contract, including {IERC20-balanceOf} and {IERC20-transfer}."
      },
      "decreaseAllowance(address,uint256)": {
        "details": "Atomically decreases the allowance granted to `spender` by the caller. This is an alternative to {approve} that can be used as a mitigation for problems described in {IERC20-approve}. Emits an {Approval} event indicating the updated allowance. Requirements: - `spender` cannot be the zero address. - `spender` must have allowance for the caller of at least `subtractedValue`."
      },
      "increaseAllowance(address,uint256)": {
        "details": "Atomically increases the allowance granted to `spender` by the caller. This is an alternative to {approve} that can be used as a mitigation for problems described in {IERC20-approve}. Emits an {Approval} event indicating the updated allowance. Requirements: - `spender` cannot be the zero address."
      },
      "name()": {
        "details": "Returns the name of the token."
      },
      "owner()": {
        "details": "Returns the address of the current owner."
      },
      "renounceOwnership()": {
        "details": "Leaves the contract without owner. It will not be possible to call `onlyOwner` functions anymore. Can only be called by the current owner. NOTE: Renouncing ownership will leave the contract without an owner, thereby removing any functionality that is only available to the owner."
      },
      "symbol()": {
        "details": "Returns the symbol of the token, usually a shorter version of the name."
      },
      "totalSupply()": {
        "details": "See {IERC20-totalSupply}."
      },
      "transfer(address,uint256)": {
        "details": "See {IERC20-transfer}. Requirements: - `to` cannot be the zero address. - the caller must have a balance of at least `amount`."
      },
      "transferFrom(address,address,uint256)": {
        "details": "See {IERC20-transferFrom}. Emits an {Approval} event indicating the updated allowance. This is not required by the EIP. See the note at the beginning of {ERC20}. NOTE: Does not update the allowance if the current allowance is the maximum `uint256`. Requirements: - `from` and `to` cannot be the zero address. - `from` must have a balance of at least `amount`. - the caller must have allowance for ``from``'s tokens of at least `amount`."
      },
      "transferOwnership(address)": {
        "details": "Transfers ownership of the contract to a new account (`newOwner`). Can only be called by the current owner."
      }
    },
    "version": 1
  },
  "userdoc": {
    "kind": "user",
    "methods": {},
    "version": 1
  }
}