{
  "contractName": "MarketPlace",
  "abi": [
    {
      "inputs": [
        {
          "internalType": "address",
          "name": "nftaddress",
          "type": "address"
        },
        {
          "internalType": "address",
          "name": "jtokenaddress",
          "type": "address"
        }
      ],
      "stateMutability": "nonpayable",
      "type": "constructor"
    },
    {
      "anonymous": false,
      "inputs": [
        {
          "indexed": true,
          "internalType": "address",
          "name": "previousOwner",
          "type": "address"
        },
        {
          "indexed": true,
          "internalType": "address",
          "name": "newOwner",
          "type": "address"
        }
      ],
      "name": "OwnershipTransferred",
      "type": "event"
    },
    {
      "inputs": [],
      "name": "owner",
      "outputs": [
        {
          "internalType": "address",
          "name": "",
          "type": "address"
        }
      ],
      "stateMutability": "view",
      "type": "function",
      "constant": true
    },
    {
      "inputs": [],
      "name": "renounceOwnership",
      "outputs": [],
      "stateMutability": "nonpayable",
      "type": "function"
    },
    {
      "inputs": [
        {
          "internalType": "address",
          "name": "newOwner",
          "type": "address"
        }
      ],
      "name": "transferOwnership",
      "outputs": [],
      "stateMutability": "nonpayable",
      "type": "function"
    },
    {
      "inputs": [
        {
          "internalType": "uint256",
          "name": "NFTId",
          "type": "uint256"
        },
        {
          "internalType": "uint256",
          "name": "price",
          "type": "uint256"
        }
      ],
      "name": "createMarketItem",
      "outputs": [],
      "stateMutability": "nonpayable",
      "type": "function"
    },
    {
      "inputs": [],
      "name": "fetchMarketItems",
      "outputs": [
        {
          "components": [
            {
              "internalType": "uint256",
              "name": "itemId",
              "type": "uint256"
            },
            {
              "internalType": "uint256",
              "name": "tokenId",
              "type": "uint256"
            },
            {
              "internalType": "address payable",
              "name": "seller",
              "type": "address"
            },
            {
              "internalType": "address payable",
              "name": "owner",
              "type": "address"
            },
            {
              "internalType": "uint256",
              "name": "price",
              "type": "uint256"
            },
            {
              "internalType": "string",
              "name": "tokenURI",
              "type": "string"
            },
            {
              "internalType": "uint256",
              "name": "rarity",
              "type": "uint256"
            },
            {
              "internalType": "uint256",
              "name": "createdtime",
              "type": "uint256"
            }
          ],
          "internalType": "struct MarketPlace.MarketItem[]",
          "name": "",
          "type": "tuple[]"
        }
      ],
      "stateMutability": "view",
      "type": "function",
      "constant": true
    },
    {
      "inputs": [
        {
          "internalType": "uint256",
          "name": "itemId",
          "type": "uint256"
        }
      ],
      "name": "cancelMarketItem",
      "outputs": [],
      "stateMutability": "payable",
      "type": "function",
      "payable": true
    },
    {
      "inputs": [
        {
          "internalType": "uint256",
          "name": "itemId",
          "type": "uint256"
        },
        {
          "internalType": "uint256",
          "name": "price",
          "type": "uint256"
        }
      ],
      "name": "updatePrice",
      "outputs": [],
      "stateMutability": "payable",
      "type": "function",
      "payable": true
    },
    {
      "inputs": [
        {
          "internalType": "address",
          "name": "account",
          "type": "address"
        }
      ],
      "name": "fetchSellingItems",
      "outputs": [
        {
          "components": [
            {
              "internalType": "uint256",
              "name": "itemId",
              "type": "uint256"
            },
            {
              "internalType": "uint256",
              "name": "tokenId",
              "type": "uint256"
            },
            {
              "internalType": "address payable",
              "name": "seller",
              "type": "address"
            },
            {
              "internalType": "address payable",
              "name": "owner",
              "type": "address"
            },
            {
              "internalType": "uint256",
              "name": "price",
              "type": "uint256"
            },
            {
              "internalType": "string",
              "name": "tokenURI",
              "type": "string"
            },
            {
              "internalType": "uint256",
              "name": "rarity",
              "type": "uint256"
            },
            {
              "internalType": "uint256",
              "name": "createdtime",
              "type": "uint256"
            }
          ],
          "internalType": "struct MarketPlace.MarketItem[]",
          "name": "",
          "type": "tuple[]"
        }
      ],
      "stateMutability": "view",
      "type": "function",
      "constant": true
    },
    {
      "inputs": [
        {
          "internalType": "uint256",
          "name": "itemId",
          "type": "uint256"
        },
        {
          "internalType": "uint256",
          "name": "erc20Amount",
          "type": "uint256"
        }
      ],
      "name": "createMarketSale",
      "outputs": [],
      "stateMutability": "payable",
      "type": "function",
      "payable": true
    }
  ],
  "bytecode": "0x60806040523480156200001157600080fd5b5060405162001670380380620016708339810160408190526200003491620000e5565b6001600055620000443362000076565b600480546001600160a01b039384166001600160a01b031991821617909155600580549290931691161790556200011d565b600180546001600160a01b038381166001600160a01b0319831681179093556040519116919082907f8be0079c531659141344cd1fd0a4f28419497f9722a3daafe3b4186f6b6457e090600090a35050565b80516001600160a01b0381168114620000e057600080fd5b919050565b60008060408385031215620000f957600080fd5b6200010483620000c8565b91506200011460208401620000c8565b90509250929050565b611543806200012d6000396000f3fe6080604052600436106100865760003560e01c806382367b2d1161005957806382367b2d1461010d5780638da5cb5b14610120578063a1c11ca814610148578063a6e22b021461015b578063f2fde38b1461016e57600080fd5b80630f08efe01461008b578063361c1995146100b65780636a53ac0e146100d8578063715018a6146100f8575b600080fd5b34801561009757600080fd5b506100a061018e565b6040516100ad91906111d0565b60405180910390f35b3480156100c257600080fd5b506100d66100d1366004611296565b610388565b005b3480156100e457600080fd5b506100a06100f33660046112cd565b6107cd565b34801561010457600080fd5b506100d6610a4d565b6100d661011b366004611296565b610ab3565b34801561012c57600080fd5b506001546040516001600160a01b0390911681526020016100ad565b6100d6610156366004611296565b610b6a565b6100d66101693660046112f1565b610e33565b34801561017a57600080fd5b506100d66101893660046112cd565b610f67565b6060600061019b60025490565b905060006101a860035490565b6002546101b59190611320565b90506000808267ffffffffffffffff8111156101d3576101d3611337565b60405190808252806020026020018201604052801561020c57816020015b6101f9611084565b8152602001906001900390816101f15790505b50905060015b84811161037f576000818152600660205260409020600301546001600160a01b031630141561036d576000818152600660209081526040918290208251610100810184528154815260018201549281019290925260028101546001600160a01b0390811693830193909352600381015490921660608201526004820154608082015260058201805491929160a0840191906102ac9061134d565b80601f01602080910402602001604051908101604052809291908181526020018280546102d89061134d565b80156103255780601f106102fa57610100808354040283529160200191610325565b820191906000526020600020905b81548152906001019060200180831161030857829003601f168201915b505050505081526020016006820154815260200160078201548152505082848151811061035457610354611388565b602090810291909101015261036a60018461139e565b92505b80610377816113b6565b915050610212565b50949350505050565b600480546040516359b2566b60e11b81529182018490526000916001600160a01b039091169063b364acd690602401602060405180830381865afa1580156103d4573d6000803e3d6000fd5b505050506040513d601f19601f820116820180604052508101906103f891906113d1565b905080156104435760405162461bcd60e51b81526020600482015260136024820152724e465420616c72656164792073656c6c696e6760681b60448201526064015b60405180910390fd5b6004805460405163620d1b0560e11b81529182018590526000916001600160a01b039091169063c41a360a90602401602060405180830381865afa15801561048f573d6000803e3d6000fd5b505050506040513d601f19601f820116820180604052508101906104b391906113f3565b600480546040516314ff5ea360e01b81529182018790529192506000916001600160a01b0316906314ff5ea390602401602060405180830381865afa158015610500573d6000803e3d6000fd5b505050506040513d601f19601f820116820180604052508101906105249190611410565b6004805460405163c87b56dd60e01b81529182018890529192506000916001600160a01b03169063c87b56dd90602401600060405180830381865afa158015610571573d6000803e3d6000fd5b505050506040513d6000823e601f3d908101601f191682016040526105999190810190611429565b60048054604051634875869760e01b81529182018990529192506000916001600160a01b031690634875869790602401602060405180830381865afa1580156105e6573d6000803e3d6000fd5b505050506040513d601f19601f8201168201806040525081019061060a9190611410565b90506001600160a01b03841633146106645760405162461bcd60e51b815260206004820152601b60248201527f4f6e6c79206f776e65722063616e2073656c6c206f776e204e46540000000000604482015260640161043a565b610672600280546001019055565b60405180610100016040528061068760025490565b8152602001848152602001856001600160a01b03168152602001306001600160a01b0316815260200187815260200183815260200182815260200142815250600660006106d360025490565b8152602080820192909252604090810160002083518155838301516001820155908301516002820180546001600160a01b039283166001600160a01b03199182161790915560608501516003840180549190931691161790556080830151600482015560a083015180519192610751926005850192909101906110db565b5060c0820151600682015560e09091015160079091015560048054604051636f7fd94b60e11b81529182018990526001600160a01b03169063deffb29690602401600060405180830381600087803b1580156107ac57600080fd5b505af11580156107c0573d6000803e3d6000fd5b5050505050505050505050565b606060006107da60025490565b905060008060015b838111610853576000818152600660205260409020600201546001600160a01b03878116911614801561082e57506000818152600660205260409020600301546001600160a01b031630145b156108415761083e60018361139e565b91505b8061084b816113b6565b9150506107e2565b5060008167ffffffffffffffff81111561086f5761086f611337565b6040519080825280602002602001820160405280156108a857816020015b610895611084565b81526020019060019003908161088d5790505b50905060015b848111610a43576000818152600660205260409020600201546001600160a01b0388811691161480156108fa57506000818152600660205260409020600301546001600160a01b031630145b15610a31576000818152600660209081526040918290208251610100810184528154815260018201549281019290925260028101546001600160a01b0390811693830193909352600381015490921660608201526004820154608082015260058201805484939160a084019161096f9061134d565b80601f016020809104026020016040519081016040528092919081815260200182805461099b9061134d565b80156109e85780601f106109bd576101008083540402835291602001916109e8565b820191906000526020600020905b8154815290600101906020018083116109cb57829003601f168201915b5050505050815260200160068201548152602001600782015481525050838681518110610a1757610a17611388565b6020908102919091010152610a2d60018661139e565b9450505b80610a3b816113b6565b9150506108ae565b5095945050505050565b6001546001600160a01b03163314610aa75760405162461bcd60e51b815260206004820181905260248201527f4f776e61626c653a2063616c6c6572206973206e6f7420746865206f776e6572604482015260640161043a565b610ab16000611032565b565b60026000541415610ad65760405162461bcd60e51b815260040161043a906114d6565b6002600081815583815260066020526040902001546001600160a01b03163314610b525760405162461bcd60e51b815260206004820152602760248201527f4f6e6c79206f776e65722063616e20757064617465206d61726b6574206974656044820152666d20707269636560c81b606482015260840161043a565b60009182526006602052604082206004015560019055565b60026000541415610b8d5760405162461bcd60e51b815260040161043a906114d6565b600260009081558281526006602052604090206004810154600190910154828214610c22576040805162461bcd60e51b81526020600482015260248101919091527f506c65617365207375626d6974207468652061736b696e67207072696365206960448201527f6e206f7264657220746f20636f6d706c65746520746865207075726368617365606482015260840161043a565b6000848152600660205260409020600201546001600160a01b0316331415610c8c5760405162461bcd60e51b815260206004820152601e60248201527f4f776e6572206e6f7420616c6c6f7720746f20627579206f776e204e46540000604482015260640161043a565b600554600085815260066020526040908190206002015490516323b872dd60e01b81523360048201526001600160a01b039182166024820152604481018590529116906323b872dd906064016020604051808303816000875af1158015610cf7573d6000803e3d6000fd5b505050506040513d601f19601f82011682018060405250810190610d1b91906113d1565b5060048054604051636f7fd94b60e11b81529182018390526001600160a01b03169063deffb29690602401600060405180830381600087803b158015610d6057600080fd5b505af1158015610d74573d6000803e3d6000fd5b505060048054600088815260066020526040908190206002015490516323b872dd60e01b81526001600160a01b0391821693810193909352336024840152604483018690521692506323b872dd9150606401600060405180830381600087803b158015610de057600080fd5b505af1158015610df4573d6000803e3d6000fd5b5050506000858152600660205260409020600390810180546001600160a01b03191633179055610e28915080546001019055565b505060016000555050565b60026000541415610e565760405162461bcd60e51b815260040161043a906114d6565b6002600081815582815260066020526040902060018101549101546001600160a01b03163314610ed25760405162461bcd60e51b815260206004820152602160248201527f4f6e6c79206f776e65722063616e2063616e63656c206d61726b6574206974656044820152606d60f81b606482015260840161043a565b60048054604051636f7fd94b60e11b81529182018390526001600160a01b03169063deffb29690602401600060405180830381600087803b158015610f1657600080fd5b505af1158015610f2a573d6000803e3d6000fd5b5050506000838152600660205260409020600390810180546001600160a01b03191633179055610f5e915080546001019055565b50506001600055565b6001546001600160a01b03163314610fc15760405162461bcd60e51b815260206004820181905260248201527f4f776e61626c653a2063616c6c6572206973206e6f7420746865206f776e6572604482015260640161043a565b6001600160a01b0381166110265760405162461bcd60e51b815260206004820152602660248201527f4f776e61626c653a206e6577206f776e657220697320746865207a65726f206160448201526564647265737360d01b606482015260840161043a565b61102f81611032565b50565b600180546001600160a01b038381166001600160a01b0319831681179093556040519116919082907f8be0079c531659141344cd1fd0a4f28419497f9722a3daafe3b4186f6b6457e090600090a35050565b604051806101000160405280600081526020016000815260200160006001600160a01b0316815260200160006001600160a01b03168152602001600081526020016060815260200160008152602001600081525090565b8280546110e79061134d565b90600052602060002090601f016020900481019282611109576000855561114f565b82601f1061112257805160ff191683800117855561114f565b8280016001018555821561114f579182015b8281111561114f578251825591602001919060010190611134565b5061115b92915061115f565b5090565b5b8082111561115b5760008155600101611160565b60005b8381101561118f578181015183820152602001611177565b8381111561119e576000848401525b50505050565b600081518084526111bc816020860160208601611174565b601f01601f19169290920160200192915050565b60006020808301818452808551808352604092508286019150828160051b87010184880160005b8381101561128857888303603f190185528151805184528781015188850152868101516001600160a01b0390811688860152606080830151909116908501526080808201519085015260a080820151610100828701819052919061125d838801826111a4565b60c0858101519089015260e094850151949097019390935250505093860193908601906001016111f7565b509098975050505050505050565b600080604083850312156112a957600080fd5b50508035926020909101359150565b6001600160a01b038116811461102f57600080fd5b6000602082840312156112df57600080fd5b81356112ea816112b8565b9392505050565b60006020828403121561130357600080fd5b5035919050565b634e487b7160e01b600052601160045260246000fd5b6000828210156113325761133261130a565b500390565b634e487b7160e01b600052604160045260246000fd5b600181811c9082168061136157607f821691505b6020821081141561138257634e487b7160e01b600052602260045260246000fd5b50919050565b634e487b7160e01b600052603260045260246000fd5b600082198211156113b1576113b161130a565b500190565b60006000198214156113ca576113ca61130a565b5060010190565b6000602082840312156113e357600080fd5b815180151581146112ea57600080fd5b60006020828403121561140557600080fd5b81516112ea816112b8565b60006020828403121561142257600080fd5b5051919050565b60006020828403121561143b57600080fd5b815167ffffffffffffffff8082111561145357600080fd5b818401915084601f83011261146757600080fd5b81518181111561147957611479611337565b604051601f8201601f19908116603f011681019083821181831017156114a1576114a1611337565b816040528281528760208487010111156114ba57600080fd5b6114cb836020830160208801611174565b979650505050505050565b6020808252601f908201527f5265656e7472616e637947756172643a207265656e7472616e742063616c6c0060408201526060019056fea26469706673582212208e3a286869d3638b03624497331a9fd24cf32821d625e62e2d8706719caa6fdd64736f6c634300080a0033",
  "immutableReferences": {},
  "source": "// SPDX-License-Identifier: MIT\r\npragma solidity ^0.8.0;\r\n\r\nimport \"@openzeppelin/contracts/access/Ownable.sol\";\r\nimport \"@openzeppelin/contracts/utils/Counters.sol\";\r\nimport \"@openzeppelin/contracts/security/ReentrancyGuard.sol\";\r\nimport \"@openzeppelin/contracts/utils/Strings.sol\";\r\nimport \"./RANDOMNFT.sol\";\r\n\r\ncontract MarketPlace is ReentrancyGuard, Ownable {\r\n    using Counters for Counters.Counter;\r\n    Counters.Counter private _itemIds;\r\n    Counters.Counter private _itemsSold;\r\n\r\n    address NFTAddress;\r\n    address JTOKENAddress;\r\n\r\n    constructor(address nftaddress, address jtokenaddress) {\r\n        NFTAddress = nftaddress;\r\n        JTOKENAddress = jtokenaddress;\r\n    }\r\n\r\n    struct MarketItem {\r\n        uint256 itemId;\r\n        uint256 tokenId;\r\n        address payable seller;\r\n        address payable owner;\r\n        uint256 price;\r\n        string tokenURI;\r\n        uint rarity;\r\n        uint256 createdtime;\r\n    }\r\n\r\n    mapping(uint256 => MarketItem) private idToMarketItem;\r\n\r\n    function createMarketItem(uint256 NFTId, uint256 price) public {\r\n        bool isSelling = RANDOMNFT(NFTAddress).getSelling(NFTId);\r\n        require(isSelling == false, \"NFT already selling\");\r\n        address owner = RANDOMNFT(NFTAddress).getOwner(NFTId);\r\n        uint id = RANDOMNFT(NFTAddress).getTokenId(NFTId);\r\n        string memory URL = RANDOMNFT(NFTAddress).tokenURI(NFTId);\r\n        uint rarity = RANDOMNFT(NFTAddress).getRarity(NFTId);\r\n        require(owner == msg.sender, \"Only owner can sell own NFT\");\r\n\r\n        _itemIds.increment();\r\n\r\n        idToMarketItem[_itemIds.current()] = MarketItem(_itemIds.current(), id, payable(owner), payable(address(this)), price, URL, rarity, block.timestamp);\r\n\r\n        RANDOMNFT(NFTAddress).setSelling(NFTId);\r\n    }\r\n\r\n    //FETCH ALL NFT THAT SELLING ON MARKETPLACE\r\n    function fetchMarketItems() public view returns (MarketItem[] memory) {\r\n        uint256 itemCount = _itemIds.current();\r\n        uint256 unsoldItemCount = _itemIds.current() - _itemsSold.current();\r\n        uint256 currentIndex = 0;\r\n\r\n        MarketItem[] memory items = new MarketItem[](unsoldItemCount);\r\n        for (uint256 i = 1; i <= itemCount; i++) {\r\n            if (idToMarketItem[i].owner == address(this)) {\r\n                items[currentIndex] = idToMarketItem[i];\r\n                currentIndex += 1;\r\n            }\r\n        }\r\n\r\n        return items;\r\n    }\r\n\r\n    //UNLIST NFT FROM MARKETPLACE\r\n    function cancelMarketItem(uint256 itemId) public payable nonReentrant {\r\n        uint256 tokenId = idToMarketItem[itemId].tokenId;\r\n        \r\n        //Check is seller\r\n        require(msg.sender == idToMarketItem[itemId].seller, \"Only owner can cancel market item\");\r\n        RANDOMNFT(NFTAddress).setSelling(tokenId);\r\n\r\n        //Remove from MarketItem\r\n        idToMarketItem[itemId].owner = payable(msg.sender);\r\n        _itemsSold.increment();\r\n    }\r\n\r\n    function updatePrice(uint256 itemId, uint256 price) public payable nonReentrant {\r\n        //Check is seller\r\n        require(msg.sender == idToMarketItem[itemId].seller, \"Only owner can update market item price\");\r\n\r\n        idToMarketItem[itemId].price = price;\r\n    }\r\n\r\n    //ONLY FETCH PLAYER'S SELLING NFT\r\n    function fetchSellingItems(address account) public view returns (MarketItem[] memory) {\r\n        uint256 itemCount = _itemIds.current();\r\n        uint256 currentIndex = 0;\r\n        uint256 ownItemCount = 0;\r\n\r\n        for (uint256 i = 1; i <= itemCount; i++) {\r\n            if (\r\n                idToMarketItem[i].seller == account &&\r\n                idToMarketItem[i].owner == address(this)\r\n            ) {\r\n                ownItemCount += 1;\r\n            }\r\n        }\r\n\r\n        MarketItem[] memory items = new MarketItem[](ownItemCount);\r\n        for (uint256 i = 1; i <= itemCount; i++) {\r\n            if (\r\n                idToMarketItem[i].seller == account &&\r\n                idToMarketItem[i].owner == address(this)\r\n            ) {\r\n                uint256 currentId = i;\r\n                items[currentIndex] = idToMarketItem[currentId];\r\n                currentIndex += 1;\r\n            }\r\n        }\r\n\r\n        return items;\r\n    }\r\n\r\n    //BUY NFT AT MARKETPLACE FUNCTION\r\n    function createMarketSale(uint256 itemId, uint256 erc20Amount) public payable nonReentrant {\r\n        uint256 price = idToMarketItem[itemId].price;\r\n        uint256 tokenId = idToMarketItem[itemId].tokenId;\r\n        require (erc20Amount == price, \"Please submit the asking price in order to complete the purchase\");\r\n\t    require (idToMarketItem[itemId].seller != msg.sender, \"Owner not allow to buy own NFT\");\r\n\r\n        // BUYER TO SELLER\r\n        ERC20(JTOKENAddress).transferFrom(msg.sender, idToMarketItem[itemId].seller, price);\r\n\r\n        RANDOMNFT(NFTAddress).setSelling(tokenId);\r\n\r\n        // TRANSFER NFT FROM CONTRACT TO BUYER\r\n        IERC721(NFTAddress).transferFrom(idToMarketItem[itemId].seller, msg.sender, tokenId);\r\n\r\n        idToMarketItem[itemId].owner = payable(msg.sender);\r\n        _itemsSold.increment();\r\n    }\r\n}\r\n",
  "sourcePath": "C:\\xampp\\htdocs\\blockchain\\contracts\\MarketPlace.sol",
  "compiler": {
    "name": "solc",
    "version": "0.8.10+commit.fc410830.Emscripten.clang"
  },
  "schemaVersion": "3.4.4",
  "updatedAt": "2022-04-08T18:11:58.219Z",
  "networkType": "ethereum",
  "devdoc": {
    "kind": "dev",
    "methods": {
      "owner()": {
        "details": "Returns the address of the current owner."
      },
      "renounceOwnership()": {
        "details": "Leaves the contract without owner. It will not be possible to call `onlyOwner` functions anymore. Can only be called by the current owner. NOTE: Renouncing ownership will leave the contract without an owner, thereby removing any functionality that is only available to the owner."
      },
      "transferOwnership(address)": {
        "details": "Transfers ownership of the contract to a new account (`newOwner`). Can only be called by the current owner."
      }
    },
    "version": 1
  },
  "userdoc": {
    "kind": "user",
    "methods": {},
    "version": 1
  }
}