{
  "contractName": "RANDOMNFT",
  "abi": [
    {
      "inputs": [
        {
          "internalType": "address",
          "name": "tokenAddress",
          "type": "address"
        }
      ],
      "stateMutability": "nonpayable",
      "type": "constructor"
    },
    {
      "anonymous": false,
      "inputs": [
        {
          "indexed": true,
          "internalType": "address",
          "name": "owner",
          "type": "address"
        },
        {
          "indexed": true,
          "internalType": "address",
          "name": "approved",
          "type": "address"
        },
        {
          "indexed": true,
          "internalType": "uint256",
          "name": "tokenId",
          "type": "uint256"
        }
      ],
      "name": "Approval",
      "type": "event"
    },
    {
      "anonymous": false,
      "inputs": [
        {
          "indexed": true,
          "internalType": "address",
          "name": "owner",
          "type": "address"
        },
        {
          "indexed": true,
          "internalType": "address",
          "name": "operator",
          "type": "address"
        },
        {
          "indexed": false,
          "internalType": "bool",
          "name": "approved",
          "type": "bool"
        }
      ],
      "name": "ApprovalForAll",
      "type": "event"
    },
    {
      "anonymous": false,
      "inputs": [
        {
          "indexed": true,
          "internalType": "address",
          "name": "previousOwner",
          "type": "address"
        },
        {
          "indexed": true,
          "internalType": "address",
          "name": "newOwner",
          "type": "address"
        }
      ],
      "name": "OwnershipTransferred",
      "type": "event"
    },
    {
      "anonymous": false,
      "inputs": [
        {
          "indexed": true,
          "internalType": "address",
          "name": "from",
          "type": "address"
        },
        {
          "indexed": true,
          "internalType": "address",
          "name": "to",
          "type": "address"
        },
        {
          "indexed": true,
          "internalType": "uint256",
          "name": "tokenId",
          "type": "uint256"
        }
      ],
      "name": "Transfer",
      "type": "event"
    },
    {
      "inputs": [
        {
          "internalType": "address",
          "name": "to",
          "type": "address"
        },
        {
          "internalType": "uint256",
          "name": "tokenId",
          "type": "uint256"
        }
      ],
      "name": "approve",
      "outputs": [],
      "stateMutability": "nonpayable",
      "type": "function"
    },
    {
      "inputs": [
        {
          "internalType": "address",
          "name": "owner",
          "type": "address"
        }
      ],
      "name": "balanceOf",
      "outputs": [
        {
          "internalType": "uint256",
          "name": "",
          "type": "uint256"
        }
      ],
      "stateMutability": "view",
      "type": "function",
      "constant": true
    },
    {
      "inputs": [
        {
          "internalType": "uint256",
          "name": "tokenId",
          "type": "uint256"
        }
      ],
      "name": "getApproved",
      "outputs": [
        {
          "internalType": "address",
          "name": "",
          "type": "address"
        }
      ],
      "stateMutability": "view",
      "type": "function",
      "constant": true
    },
    {
      "inputs": [
        {
          "internalType": "address",
          "name": "owner",
          "type": "address"
        },
        {
          "internalType": "address",
          "name": "operator",
          "type": "address"
        }
      ],
      "name": "isApprovedForAll",
      "outputs": [
        {
          "internalType": "bool",
          "name": "",
          "type": "bool"
        }
      ],
      "stateMutability": "view",
      "type": "function",
      "constant": true
    },
    {
      "inputs": [],
      "name": "name",
      "outputs": [
        {
          "internalType": "string",
          "name": "",
          "type": "string"
        }
      ],
      "stateMutability": "view",
      "type": "function",
      "constant": true
    },
    {
      "inputs": [],
      "name": "owner",
      "outputs": [
        {
          "internalType": "address",
          "name": "",
          "type": "address"
        }
      ],
      "stateMutability": "view",
      "type": "function",
      "constant": true
    },
    {
      "inputs": [
        {
          "internalType": "uint256",
          "name": "tokenId",
          "type": "uint256"
        }
      ],
      "name": "ownerOf",
      "outputs": [
        {
          "internalType": "address",
          "name": "",
          "type": "address"
        }
      ],
      "stateMutability": "view",
      "type": "function",
      "constant": true
    },
    {
      "inputs": [],
      "name": "renounceOwnership",
      "outputs": [],
      "stateMutability": "nonpayable",
      "type": "function"
    },
    {
      "inputs": [
        {
          "internalType": "address",
          "name": "operator",
          "type": "address"
        },
        {
          "internalType": "bool",
          "name": "approved",
          "type": "bool"
        }
      ],
      "name": "setApprovalForAll",
      "outputs": [],
      "stateMutability": "nonpayable",
      "type": "function"
    },
    {
      "inputs": [
        {
          "internalType": "bytes4",
          "name": "interfaceId",
          "type": "bytes4"
        }
      ],
      "name": "supportsInterface",
      "outputs": [
        {
          "internalType": "bool",
          "name": "",
          "type": "bool"
        }
      ],
      "stateMutability": "view",
      "type": "function",
      "constant": true
    },
    {
      "inputs": [],
      "name": "symbol",
      "outputs": [
        {
          "internalType": "string",
          "name": "",
          "type": "string"
        }
      ],
      "stateMutability": "view",
      "type": "function",
      "constant": true
    },
    {
      "inputs": [
        {
          "internalType": "uint256",
          "name": "tokenId",
          "type": "uint256"
        }
      ],
      "name": "tokenURI",
      "outputs": [
        {
          "internalType": "string",
          "name": "",
          "type": "string"
        }
      ],
      "stateMutability": "view",
      "type": "function",
      "constant": true
    },
    {
      "inputs": [
        {
          "internalType": "address",
          "name": "newOwner",
          "type": "address"
        }
      ],
      "name": "transferOwnership",
      "outputs": [],
      "stateMutability": "nonpayable",
      "type": "function"
    },
    {
      "inputs": [
        {
          "internalType": "uint256",
          "name": "price",
          "type": "uint256"
        },
        {
          "internalType": "bytes32",
          "name": "encryptHashValue",
          "type": "bytes32"
        }
      ],
      "name": "mintNFT",
      "outputs": [],
      "stateMutability": "nonpayable",
      "type": "function"
    },
    {
      "inputs": [
        {
          "internalType": "string",
          "name": "hash",
          "type": "string"
        }
      ],
      "name": "setHashKey",
      "outputs": [],
      "stateMutability": "nonpayable",
      "type": "function"
    },
    {
      "inputs": [],
      "name": "getHashKey",
      "outputs": [
        {
          "internalType": "string",
          "name": "",
          "type": "string"
        }
      ],
      "stateMutability": "view",
      "type": "function",
      "constant": true
    },
    {
      "inputs": [
        {
          "internalType": "address",
          "name": "account",
          "type": "address"
        }
      ],
      "name": "getAllTokensForUser",
      "outputs": [
        {
          "components": [
            {
              "internalType": "uint256",
              "name": "nftid",
              "type": "uint256"
            },
            {
              "internalType": "uint256",
              "name": "rarity",
              "type": "uint256"
            },
            {
              "internalType": "string",
              "name": "tokenURI",
              "type": "string"
            },
            {
              "internalType": "uint256",
              "name": "createdtime",
              "type": "uint256"
            },
            {
              "internalType": "address",
              "name": "owner",
              "type": "address"
            },
            {
              "internalType": "bool",
              "name": "selling",
              "type": "bool"
            }
          ],
          "internalType": "struct RANDOMNFT.NFTS[]",
          "name": "",
          "type": "tuple[]"
        }
      ],
      "stateMutability": "view",
      "type": "function",
      "constant": true
    },
    {
      "inputs": [
        {
          "internalType": "uint256",
          "name": "NFTID",
          "type": "uint256"
        }
      ],
      "name": "getOwner",
      "outputs": [
        {
          "internalType": "address",
          "name": "",
          "type": "address"
        }
      ],
      "stateMutability": "view",
      "type": "function",
      "constant": true
    },
    {
      "inputs": [
        {
          "internalType": "uint256",
          "name": "NFTID",
          "type": "uint256"
        }
      ],
      "name": "getTokenId",
      "outputs": [
        {
          "internalType": "uint256",
          "name": "",
          "type": "uint256"
        }
      ],
      "stateMutability": "view",
      "type": "function",
      "constant": true
    },
    {
      "inputs": [
        {
          "internalType": "uint256",
          "name": "NFTID",
          "type": "uint256"
        }
      ],
      "name": "getRarity",
      "outputs": [
        {
          "internalType": "uint256",
          "name": "",
          "type": "uint256"
        }
      ],
      "stateMutability": "view",
      "type": "function",
      "constant": true
    },
    {
      "inputs": [
        {
          "internalType": "uint256",
          "name": "NFTID",
          "type": "uint256"
        }
      ],
      "name": "getCreatedTime",
      "outputs": [
        {
          "internalType": "uint256",
          "name": "",
          "type": "uint256"
        }
      ],
      "stateMutability": "view",
      "type": "function",
      "constant": true
    },
    {
      "inputs": [
        {
          "internalType": "uint256",
          "name": "NFTID",
          "type": "uint256"
        }
      ],
      "name": "getSelling",
      "outputs": [
        {
          "internalType": "bool",
          "name": "",
          "type": "bool"
        }
      ],
      "stateMutability": "view",
      "type": "function",
      "constant": true
    },
    {
      "inputs": [
        {
          "internalType": "uint256",
          "name": "NFTID",
          "type": "uint256"
        }
      ],
      "name": "setSelling",
      "outputs": [],
      "stateMutability": "nonpayable",
      "type": "function"
    },
    {
      "inputs": [
        {
          "internalType": "address",
          "name": "from",
          "type": "address"
        },
        {
          "internalType": "address",
          "name": "to",
          "type": "address"
        },
        {
          "internalType": "uint256",
          "name": "tokenId",
          "type": "uint256"
        }
      ],
      "name": "transferFrom",
      "outputs": [],
      "stateMutability": "nonpayable",
      "type": "function"
    },
    {
      "inputs": [
        {
          "internalType": "address",
          "name": "from",
          "type": "address"
        },
        {
          "internalType": "address",
          "name": "to",
          "type": "address"
        },
        {
          "internalType": "uint256",
          "name": "tokenId",
          "type": "uint256"
        }
      ],
      "name": "safeTransferFrom",
      "outputs": [],
      "stateMutability": "nonpayable",
      "type": "function"
    },
    {
      "inputs": [
        {
          "internalType": "address",
          "name": "from",
          "type": "address"
        },
        {
          "internalType": "address",
          "name": "to",
          "type": "address"
        },
        {
          "internalType": "uint256",
          "name": "tokenId",
          "type": "uint256"
        },
        {
          "internalType": "bytes",
          "name": "_data",
          "type": "bytes"
        }
      ],
      "name": "safeTransferFrom",
      "outputs": [],
      "stateMutability": "nonpayable",
      "type": "function"
    }
  ],
  "bytecode": "0x6080604052600a80546001600160a01b03191673eb24e827c4b11f16900c37364210fd7f5c5225551790556000600d553480156200003c57600080fd5b506040516200278d3803806200278d8339810160408190526200005f916200021c565b60408051808201825260038082526213919560ea1b6020808401828152855180870190965292855284015281519192916200009d9160009162000176565b508051620000b390600190602084019062000176565b505050620000d0620000ca6200012060201b60201c565b62000124565b600980546001600160a01b0319166001600160a01b038316179055604080518082019091526004808252633131313160e01b60209092019182526200011891600b9162000176565b50506200028b565b3390565b600780546001600160a01b038381166001600160a01b0319831681179093556040519116919082907f8be0079c531659141344cd1fd0a4f28419497f9722a3daafe3b4186f6b6457e090600090a35050565b82805462000184906200024e565b90600052602060002090601f016020900481019282620001a85760008555620001f3565b82601f10620001c357805160ff1916838001178555620001f3565b82800160010185558215620001f3579182015b82811115620001f3578251825591602001919060010190620001d6565b506200020192915062000205565b5090565b5b8082111562000201576000815560010162000206565b6000602082840312156200022f57600080fd5b81516001600160a01b03811681146200024757600080fd5b9392505050565b600181811c908216806200026357607f821691505b602082108114156200028557634e487b7160e01b600052602260045260246000fd5b50919050565b6124f2806200029b6000396000f3fe608060405234801561001057600080fd5b506004361061018e5760003560e01c806382de8fe9116100de578063c41a360a11610097578063deffb29611610071578063deffb29614610395578063e985e9c5146103d3578063f2fde38b1461040f578063f521a9821461042257600080fd5b8063c41a360a1461035c578063c87b56dd1461036f578063d7a2b0311461038257600080fd5b806382de8fe9146102d05780638da5cb5b146102f057806395d89b4114610301578063a22cb46514610309578063b364acd61461031c578063b88d4fde1461034957600080fd5b806323b872dd1161014b5780634e77925d116101255780634e77925d1461029a5780636352211e146102a257806370a08231146102b5578063715018a6146102c857600080fd5b806323b872dd1461025157806342842e0e14610264578063487586971461027757600080fd5b806301ffc9a71461019357806306fdde03146101bb578063081812fc146101d0578063095ea7b3146101fb57806314ff5ea3146102105780631dc4009b1461023e575b600080fd5b6101a66101a1366004611e1c565b610445565b60405190151581526020015b60405180910390f35b6101c3610497565b6040516101b29190611e91565b6101e36101de366004611ea4565b610529565b6040516001600160a01b0390911681526020016101b2565b61020e610209366004611ed9565b6105b6565b005b61023061021e366004611ea4565b6000908152600e602052604090205490565b6040519081526020016101b2565b61020e61024c366004611f8f565b6106cc565b61020e61025f366004611fd8565b61070d565b61020e610272366004611fd8565b610781565b610230610285366004611ea4565b6000908152600e602052604090206001015490565b6101c3610805565b6101e36102b0366004611ea4565b61083f565b6102306102c3366004612014565b6108b6565b61020e61093d565b6102e36102de366004612014565b610973565b6040516101b2919061202f565b6007546001600160a01b03166101e3565b6101c3610c2f565b61020e6103173660046120e7565b610c3e565b6101a661032a366004611ea4565b6000908152600e6020526040902060040154600160a01b900460ff1690565b61020e61035736600461211e565b610c49565b6101e361036a366004611ea4565b610ccb565b6101c361037d366004611ea4565b610cd6565b61020e61039036600461219a565b610e4d565b61020e6103a3366004611ea4565b6000908152600e60205260409020600401805460ff60a01b198116600160a01b9182900460ff1615909102179055565b6101a66103e13660046121bc565b6001600160a01b03918216600090815260056020908152604080832093909416825291909152205460ff1690565b61020e61041d366004612014565b611311565b610230610430366004611ea4565b6000908152600e602052604090206003015490565b60006001600160e01b031982166380ac58cd60e01b148061047657506001600160e01b03198216635b5e139f60e01b145b8061049157506301ffc9a760e01b6001600160e01b03198316145b92915050565b6060600080546104a6906121ef565b80601f01602080910402602001604051908101604052809291908181526020018280546104d2906121ef565b801561051f5780601f106104f45761010080835404028352916020019161051f565b820191906000526020600020905b81548152906001019060200180831161050257829003601f168201915b5050505050905090565b6000610534826113ac565b61059a5760405162461bcd60e51b815260206004820152602c60248201527f4552433732313a20617070726f76656420717565727920666f72206e6f6e657860448201526b34b9ba32b73a103a37b5b2b760a11b60648201526084015b60405180910390fd5b506000908152600460205260409020546001600160a01b031690565b60006105c18261083f565b9050806001600160a01b0316836001600160a01b0316141561062f5760405162461bcd60e51b815260206004820152602160248201527f4552433732313a20617070726f76616c20746f2063757272656e74206f776e656044820152603960f91b6064820152608401610591565b336001600160a01b038216148061064b575061064b81336103e1565b6106bd5760405162461bcd60e51b815260206004820152603860248201527f4552433732313a20617070726f76652063616c6c6572206973206e6f74206f7760448201527f6e6572206e6f7220617070726f76656420666f7220616c6c00000000000000006064820152608401610591565b6106c783836113c9565b505050565b6007546001600160a01b031633146106f65760405162461bcd60e51b81526004016105919061222a565b805161070990600b906020840190611d2c565b5050565b6000818152600e6020526040902060040154600160a01b900460ff16156107765760405162461bcd60e51b815260206004820152601c60248201527f53656c6c696e67204e4654206e6f74207472616e7366657261626c65000000006044820152606401610591565b6106c7838383611437565b6000818152600e6020526040902060040154600160a01b900460ff16156107ea5760405162461bcd60e51b815260206004820152601c60248201527f53656c6c696e67204e4654206e6f74207472616e7366657261626c65000000006044820152606401610591565b6106c783838360405180602001604052806000815250610c49565b6007546060906001600160a01b031633146108325760405162461bcd60e51b81526004016105919061222a565b600b80546104a6906121ef565b6000818152600260205260408120546001600160a01b0316806104915760405162461bcd60e51b815260206004820152602960248201527f4552433732313a206f776e657220717565727920666f72206e6f6e657869737460448201526832b73a103a37b5b2b760b91b6064820152608401610591565b60006001600160a01b0382166109215760405162461bcd60e51b815260206004820152602a60248201527f4552433732313a2062616c616e636520717565727920666f7220746865207a65604482015269726f206164647265737360b01b6064820152608401610591565b506001600160a01b031660009081526003602052604090205490565b6007546001600160a01b031633146109675760405162461bcd60e51b81526004016105919061222a565b61097160006115d3565b565b6060600080610981846108b6565b9050600061098e60085490565b905060015b8181116109da576000818152600e6020526040902060040154600160a01b900460ff166109c857836109c481612275565b9450505b806109d281612275565b915050610993565b5081610a1b576040805160008082526020820190925290610a11565b6109fe611db0565b8152602001906001900390816109f65790505b5095945050505050565b60008367ffffffffffffffff811115610a3657610a36611f03565b604051908082528060200260200182016040528015610a6f57816020015b610a5c611db0565b815260200190600190039081610a545790505b509050600060015b838111610c23576000818152600e6020526040902060040154600160a01b900460ff16158015610ac05750876001600160a01b0316610ab58261083f565b6001600160a01b0316145b15610c1157600e60008281526020019081526020016000206040518060c00160405290816000820154815260200160018201548152602001600282018054610b07906121ef565b80601f0160208091040260200160405190810160405280929190818152602001828054610b33906121ef565b8015610b805780601f10610b5557610100808354040283529160200191610b80565b820191906000526020600020905b815481529060010190602001808311610b6357829003601f168201915b5050509183525050600382015460208201526004909101546001600160a01b0381166040830152600160a01b900460ff1615156060909101528351849084908110610bcd57610bcd612290565b6020026020010181905250610be181610cd6565b838381518110610bf357610bf3612290565b6020026020010151604001819052508180610c0d90612275565b9250505b80610c1b81612275565b915050610a77565b50909695505050505050565b6060600180546104a6906121ef565b610709338383611625565b610c5333836116f4565b610cb95760405162461bcd60e51b815260206004820152603160248201527f4552433732313a207472616e736665722063616c6c6572206973206e6f74206f6044820152701ddb995c881b9bdc88185c1c1c9bdd9959607a1b6064820152608401610591565b610cc5848484846117da565b50505050565b60006104918261083f565b6060610ce1826113ac565b610d475760405162461bcd60e51b815260206004820152603160248201527f45524337323155524953746f726167653a2055524920717565727920666f72206044820152703737b732bc34b9ba32b73a103a37b5b2b760791b6064820152608401610591565b60008281526006602052604081208054610d60906121ef565b80601f0160208091040260200160405190810160405280929190818152602001828054610d8c906121ef565b8015610dd95780601f10610dae57610100808354040283529160200191610dd9565b820191906000526020600020905b815481529060010190602001808311610dbc57829003601f168201915b505050505090506000610df760408051602081019091526000815290565b9050805160001415610e0a575092915050565b815115610e3c578082604051602001610e249291906122a6565b60405160208183030381529060405292505050919050565b610e458461180d565b949350505050565b610e56826118e5565b6000610e6382600c541490565b9050600181151514610eaf5760405162461bcd60e51b8152602060048201526015602482015274092dcecc2d8d2c840a8e4c2dce6cccae44090c2e6d605b1b6044820152606401610591565b600954600a546040516323b872dd60e01b81523360048201526001600160a01b039182166024820152604481018690529116906323b872dd906064016020604051808303816000875af1158015610f0a573d6000803e3d6000fd5b505050506040513d601f19601f82011682018060405250810190610f2e91906122d5565b50600a424433604051602001610f6993929190928352602083019190915260601b6bffffffffffffffffffffffff1916604082015260540190565b6040516020818303038152906040528051906020012060001c610f8c9190612308565b600d55610f9d600880546001019055565b610faf33610faa60085490565b611925565b600d54610fe957610fe4610fc260085490565b604051806040016040528060048152602001630c15549360e21b81525061193f565b611229565b600d546001141561102257610fe461100060085490565b604051806040016040528060048152602001630c55549360e21b81525061193f565b600d546002141561105b57610fe461103960085490565b604051806040016040528060048152602001630c95549360e21b81525061193f565b600d546003141561109457610fe461107260085490565b604051806040016040528060048152602001630cd5549360e21b81525061193f565b600d54600414156110cd57610fe46110ab60085490565b604051806040016040528060048152602001630d15549360e21b81525061193f565b600d546005141561110657610fe46110e460085490565b604051806040016040528060048152602001630d55549360e21b81525061193f565b600d546006141561113f57610fe461111d60085490565b604051806040016040528060048152602001630d95549360e21b81525061193f565b600d546007141561117857610fe461115660085490565b604051806040016040528060048152602001630dd5549360e21b81525061193f565b600d54600814156111b157610fe461118f60085490565b604051806040016040528060048152602001630e15549360e21b81525061193f565b600d54600914156111ea57610fe46111c860085490565b604051806040016040528060048152602001630e55549360e21b81525061193f565b60405162461bcd60e51b8152602060048201526014602482015273115c9c9bdc881a5b8819d95d1d1a5b99c815549360621b6044820152606401610591565b6040518060c0016040528061123d60085490565b8152602001600d548152602001604051806020016040528060008152508152602001428152602001336001600160a01b0316815260200160001515815250600e600061128860085490565b8152602001908152602001600020600082015181600001556020820151816001015560408201518160020190805190602001906112c6929190611d2c565b506060820151600382015560808201516004909101805460a0909301511515600160a01b026001600160a81b03199093166001600160a01b0390921691909117919091179055505050565b6007546001600160a01b0316331461133b5760405162461bcd60e51b81526004016105919061222a565b6001600160a01b0381166113a05760405162461bcd60e51b815260206004820152602660248201527f4f776e61626c653a206e6577206f776e657220697320746865207a65726f206160448201526564647265737360d01b6064820152608401610591565b6113a9816115d3565b50565b6000908152600260205260409020546001600160a01b0316151590565b600081815260046020526040902080546001600160a01b0319166001600160a01b03841690811790915581906113fe8261083f565b6001600160a01b03167f8c5be1e5ebec7d5bd14f71427d1e84f3dd0314c0f7b2291e5b200ac8c7c3b92560405160405180910390a45050565b826001600160a01b031661144a8261083f565b6001600160a01b0316146114ae5760405162461bcd60e51b815260206004820152602560248201527f4552433732313a207472616e736665722066726f6d20696e636f72726563742060448201526437bbb732b960d91b6064820152608401610591565b6001600160a01b0382166115105760405162461bcd60e51b8152602060048201526024808201527f4552433732313a207472616e7366657220746f20746865207a65726f206164646044820152637265737360e01b6064820152608401610591565b61151b6000826113c9565b6001600160a01b038316600090815260036020526040812080546001929061154490849061231c565b90915550506001600160a01b0382166000908152600360205260408120805460019290611572908490612333565b909155505060008181526002602052604080822080546001600160a01b0319166001600160a01b0386811691821790925591518493918716917fddf252ad1be2c89b69c2b068fc378daa952ba7f163c4a11628f55a4df523b3ef91a4505050565b600780546001600160a01b038381166001600160a01b0319831681179093556040519116919082907f8be0079c531659141344cd1fd0a4f28419497f9722a3daafe3b4186f6b6457e090600090a35050565b816001600160a01b0316836001600160a01b031614156116875760405162461bcd60e51b815260206004820152601960248201527f4552433732313a20617070726f766520746f2063616c6c6572000000000000006044820152606401610591565b6001600160a01b03838116600081815260056020908152604080832094871680845294825291829020805460ff191686151590811790915591519182527f17307eab39ab6107e8899845ad3d59bd9653f200f220920489ca2b5937696c31910160405180910390a3505050565b60006116ff826113ac565b6117605760405162461bcd60e51b815260206004820152602c60248201527f4552433732313a206f70657261746f7220717565727920666f72206e6f6e657860448201526b34b9ba32b73a103a37b5b2b760a11b6064820152608401610591565b600061176b8361083f565b9050806001600160a01b0316846001600160a01b031614806117a65750836001600160a01b031661179b84610529565b6001600160a01b0316145b80610e4557506001600160a01b0380821660009081526005602090815260408083209388168352929052205460ff16610e45565b6117e5848484611437565b6117f1848484846119ca565b610cc55760405162461bcd60e51b81526004016105919061234b565b6060611818826113ac565b61187c5760405162461bcd60e51b815260206004820152602f60248201527f4552433732314d657461646174613a2055524920717565727920666f72206e6f60448201526e3732bc34b9ba32b73a103a37b5b2b760891b6064820152608401610591565b600061189360408051602081019091526000815290565b905060008151116118b357604051806020016040528060008152506118de565b806118bd84611ac8565b6040516020016118ce9291906122a6565b6040516020818303038152906040525b9392505050565b60006118f082611ac8565b905080600b60405160200161190692919061239d565b60408051601f198184030181529190528051602090910120600c555050565b610709828260405180602001604052806000815250611bc6565b611948826113ac565b6119ab5760405162461bcd60e51b815260206004820152602e60248201527f45524337323155524953746f726167653a2055524920736574206f66206e6f6e60448201526d32bc34b9ba32b73a103a37b5b2b760911b6064820152608401610591565b600082815260066020908152604090912082516106c792840190611d2c565b60006001600160a01b0384163b15611abd57604051630a85bd0160e11b81526001600160a01b0385169063150b7a0290611a0e90339089908890889060040161244e565b6020604051808303816000875af1925050508015611a49575060408051601f3d908101601f19168201909252611a469181019061248b565b60015b611aa3573d808015611a77576040519150601f19603f3d011682016040523d82523d6000602084013e611a7c565b606091505b508051611a9b5760405162461bcd60e51b81526004016105919061234b565b805181602001fd5b6001600160e01b031916630a85bd0160e11b149050610e45565b506001949350505050565b606081611aec5750506040805180820190915260018152600360fc1b602082015290565b8160005b8115611b165780611b0081612275565b9150611b0f9050600a836124a8565b9150611af0565b60008167ffffffffffffffff811115611b3157611b31611f03565b6040519080825280601f01601f191660200182016040528015611b5b576020820181803683370190505b5090505b8415610e4557611b7060018361231c565b9150611b7d600a86612308565b611b88906030612333565b60f81b818381518110611b9d57611b9d612290565b60200101906001600160f81b031916908160001a905350611bbf600a866124a8565b9450611b5f565b611bd08383611bf9565b611bdd60008484846119ca565b6106c75760405162461bcd60e51b81526004016105919061234b565b6001600160a01b038216611c4f5760405162461bcd60e51b815260206004820181905260248201527f4552433732313a206d696e7420746f20746865207a65726f20616464726573736044820152606401610591565b611c58816113ac565b15611ca55760405162461bcd60e51b815260206004820152601c60248201527f4552433732313a20746f6b656e20616c7265616479206d696e746564000000006044820152606401610591565b6001600160a01b0382166000908152600360205260408120805460019290611cce908490612333565b909155505060008181526002602052604080822080546001600160a01b0319166001600160a01b03861690811790915590518392907fddf252ad1be2c89b69c2b068fc378daa952ba7f163c4a11628f55a4df523b3ef908290a45050565b828054611d38906121ef565b90600052602060002090601f016020900481019282611d5a5760008555611da0565b82601f10611d7357805160ff1916838001178555611da0565b82800160010185558215611da0579182015b82811115611da0578251825591602001919060010190611d85565b50611dac929150611df1565b5090565b6040518060c001604052806000815260200160008152602001606081526020016000815260200160006001600160a01b031681526020016000151581525090565b5b80821115611dac5760008155600101611df2565b6001600160e01b0319811681146113a957600080fd5b600060208284031215611e2e57600080fd5b81356118de81611e06565b60005b83811015611e54578181015183820152602001611e3c565b83811115610cc55750506000910152565b60008151808452611e7d816020860160208601611e39565b601f01601f19169290920160200192915050565b6020815260006118de6020830184611e65565b600060208284031215611eb657600080fd5b5035919050565b80356001600160a01b0381168114611ed457600080fd5b919050565b60008060408385031215611eec57600080fd5b611ef583611ebd565b946020939093013593505050565b634e487b7160e01b600052604160045260246000fd5b600067ffffffffffffffff80841115611f3457611f34611f03565b604051601f8501601f19908116603f01168101908282118183101715611f5c57611f5c611f03565b81604052809350858152868686011115611f7557600080fd5b858560208301376000602087830101525050509392505050565b600060208284031215611fa157600080fd5b813567ffffffffffffffff811115611fb857600080fd5b8201601f81018413611fc957600080fd5b610e4584823560208401611f19565b600080600060608486031215611fed57600080fd5b611ff684611ebd565b925061200460208501611ebd565b9150604084013590509250925092565b60006020828403121561202657600080fd5b6118de82611ebd565b60006020808301818452808551808352604092508286019150828160051b87010184880160005b838110156120cb57603f19898403018552815160c081518552888201518986015287820151818987015261208c82870182611e65565b606084810151908801526080808501516001600160a01b03169088015260a0938401511515939096019290925250509386019390860190600101612056565b509098975050505050505050565b80151581146113a957600080fd5b600080604083850312156120fa57600080fd5b61210383611ebd565b91506020830135612113816120d9565b809150509250929050565b6000806000806080858703121561213457600080fd5b61213d85611ebd565b935061214b60208601611ebd565b925060408501359150606085013567ffffffffffffffff81111561216e57600080fd5b8501601f8101871361217f57600080fd5b61218e87823560208401611f19565b91505092959194509250565b600080604083850312156121ad57600080fd5b50508035926020909101359150565b600080604083850312156121cf57600080fd5b6121d883611ebd565b91506121e660208401611ebd565b90509250929050565b600181811c9082168061220357607f821691505b6020821081141561222457634e487b7160e01b600052602260045260246000fd5b50919050565b6020808252818101527f4f776e61626c653a2063616c6c6572206973206e6f7420746865206f776e6572604082015260600190565b634e487b7160e01b600052601160045260246000fd5b60006000198214156122895761228961225f565b5060010190565b634e487b7160e01b600052603260045260246000fd5b600083516122b8818460208801611e39565b8351908301906122cc818360208801611e39565b01949350505050565b6000602082840312156122e757600080fd5b81516118de816120d9565b634e487b7160e01b600052601260045260246000fd5b600082612317576123176122f2565b500690565b60008282101561232e5761232e61225f565b500390565b600082198211156123465761234661225f565b500190565b60208082526032908201527f4552433732313a207472616e7366657220746f206e6f6e20455243373231526560408201527131b2b4bb32b91034b6b83632b6b2b73a32b960711b606082015260800190565b6000835160206123b08285838901611e39565b845491840191600090600181811c90808316806123ce57607f831692505b8583108114156123ec57634e487b7160e01b85526022600452602485fd5b80801561240057600181146124115761243e565b60ff1985168852838801955061243e565b60008b81526020902060005b858110156124365781548a82015290840190880161241d565b505083880195505b50939a9950505050505050505050565b6001600160a01b038581168252841660208201526040810183905260806060820181905260009061248190830184611e65565b9695505050505050565b60006020828403121561249d57600080fd5b81516118de81611e06565b6000826124b7576124b76122f2565b50049056fea2646970667358221220150d51937dce189d6a04c5f668a6b2de24a406d2cc021acee7e3e5d9fcc9d24064736f6c634300080a0033",
  "immutableReferences": {},
  "source": "// SPDX-License-Identifier: MIT\r\npragma solidity ^0.8.0;\r\n\r\nimport \"@openzeppelin/contracts/access/Ownable.sol\";\r\nimport \"@openzeppelin/contracts/utils/Strings.sol\";\r\nimport \"@openzeppelin/contracts/utils/Counters.sol\";\r\nimport \"@openzeppelin/contracts/token/ERC721/extensions/ERC721URIStorage.sol\";\r\nimport \"@openzeppelin/contracts/token/ERC721/ERC721.sol\";\r\nimport \"./JTOKEN.sol\";\r\n\r\ncontract RANDOMNFT is ERC721URIStorage, Ownable {\r\n    using Counters for Counters.Counter;\r\n    Counters.Counter private _tokenIds;\r\n    address JTokenAddress;\r\n    address admin = 0xeb24E827C4B11F16900c37364210fD7f5c522555;\r\n    string HashKey;\r\n    bytes32 hashValue;\r\n    uint rarity = 0;\r\n\r\n    struct NFTS {\r\n        uint nftid;\r\n        uint rarity;\r\n        string tokenURI;\r\n        uint256 createdtime;\r\n        address owner;\r\n        bool selling;\r\n    }\r\n\r\n    mapping(uint256 => NFTS) private _tokenDetails;\r\n\r\n    constructor(address tokenAddress) ERC721(\"NFT\", \"NFT\") {\r\n        JTokenAddress = tokenAddress;\r\n        HashKey = \"1111\";\r\n    }\r\n\r\n    function mintNFT(uint price, bytes32 encryptHashValue) public {\r\n        setHash(price);\r\n        bool checkHash = getHashValue(encryptHashValue);    \r\n        require(checkHash == true, \"Invalid Transfer Hash\");\r\n        JTOKEN(JTokenAddress).transferFrom(msg.sender, admin, price);\r\n\r\n        rarity = uint(keccak256(abi.encodePacked(block.timestamp, block.difficulty, msg.sender))) % 10;\r\n\r\n        _tokenIds.increment();\r\n        _safeMint(msg.sender, _tokenIds.current());\r\n\r\n        if(rarity == 0) {\r\n            _setTokenURI(_tokenIds.current(), \"0URL\");\r\n        } else if (rarity == 1 ) {\r\n            _setTokenURI(_tokenIds.current(), \"1URL\");  \r\n        } else if (rarity == 2 ) {\r\n            _setTokenURI(_tokenIds.current(), \"2URL\");  \r\n        } else if (rarity == 3 ) {\r\n            _setTokenURI(_tokenIds.current(), \"3URL\");\r\n        } else if (rarity == 4 ) {\r\n            _setTokenURI(_tokenIds.current(), \"4URL\");\r\n        } else if (rarity == 5) {\r\n            _setTokenURI(_tokenIds.current(), \"5URL\");\r\n        } else if (rarity == 6) {\r\n            _setTokenURI(_tokenIds.current(), \"6URL\");\r\n        } else if (rarity == 7) {\r\n            _setTokenURI(_tokenIds.current(), \"7URL\");\r\n        } else if (rarity == 8) {\r\n            _setTokenURI(_tokenIds.current(), \"8URL\");\r\n        } else if (rarity == 9) {\r\n            _setTokenURI(_tokenIds.current(), \"9URL\");\r\n        } else {\r\n            revert(\"Error in getting URL\");\r\n        }\r\n\r\n        _tokenDetails[_tokenIds.current()] = NFTS(_tokenIds.current(), rarity, \"\", block.timestamp, msg.sender, false);\r\n        \r\n    }\r\n\r\n    function setHashKey(string memory hash) public onlyOwner {\r\n        HashKey = hash;\r\n    }\r\n\r\n    function setHash(uint _hashValue) private {\r\n        string memory hash = Strings.toString(_hashValue);\r\n        hashValue = keccak256(abi.encodePacked(hash, HashKey));\r\n    }\r\n\r\n    function getHashKey() public onlyOwner view returns (string memory) {\r\n        return HashKey;\r\n    }\r\n\r\n    function getHashValue(bytes32 checkHashValue) private view returns (bool) {\r\n        return checkHashValue == hashValue;\r\n    }\r\n\r\n    //GET ALL NFT FOR THE ACCOUNT OWN\r\n    function getAllTokensForUser(address account) public view returns (NFTS[] memory) {\r\n        uint256 nftCount;\r\n        uint256 tokenCount = balanceOf(account);\r\n        uint256 totalNFTs = _tokenIds.current();\r\n\r\n        for (uint i = 1; i <= totalNFTs; i++) {\r\n            if (_tokenDetails[i].selling == false) {\r\n                nftCount++;\r\n            }\r\n        }\r\n\r\n        if (tokenCount == 0) {\r\n            return new NFTS[](0);\r\n        } else {\r\n            NFTS[] memory result = new NFTS[](nftCount);\r\n            uint256 resultIndex = 0;\r\n            for (uint i = 1; i <= totalNFTs; i++) {\r\n                if (_tokenDetails[i].selling == false && ownerOf(i) == account) {\r\n                    result[resultIndex] = _tokenDetails[i];\r\n                    result[resultIndex].tokenURI = tokenURI(i);\r\n                    resultIndex++;\r\n                }\r\n            }\r\n            return result;\r\n        }\r\n    }\r\n\r\n    function getOwner (uint256 NFTID) external view returns (address) {\r\n        return ownerOf(NFTID);\r\n    }\r\n    function getTokenId (uint256 NFTID) external view returns (uint256) {\r\n        return _tokenDetails[NFTID].nftid;\r\n    }\r\n    function getRarity (uint256 NFTID) external view returns (uint256) {\r\n        return _tokenDetails[NFTID].rarity;\r\n    }\r\n    function getCreatedTime (uint256 NFTID) external view returns (uint256) {\r\n        return _tokenDetails[NFTID].createdtime;\r\n    }\r\n    function getSelling (uint256 NFTID) external view returns (bool) {\r\n        return _tokenDetails[NFTID].selling;\r\n    }\r\n    function setSelling (uint256 NFTID) external {\r\n        _tokenDetails[NFTID].selling = !_tokenDetails[NFTID].selling;\r\n    }\r\n\r\n    function transferFrom(address from, address to, uint256 tokenId) public override {\r\n        require(_tokenDetails[tokenId].selling == false, \"Selling NFT not transferable\");\r\n        _transfer(from, to, tokenId);\r\n    }\r\n\r\n    function safeTransferFrom(\r\n        address from,\r\n        address to,\r\n        uint256 tokenId\r\n    ) public virtual override {\r\n        require(_tokenDetails[tokenId].selling == false, \"Selling NFT not transferable\");\r\n        safeTransferFrom(from, to, tokenId, \"\");\r\n    }\r\n\r\n}",
  "sourcePath": "C:\\xampp\\htdocs\\blockchain\\contracts\\RANDOMNFT.sol",
  "compiler": {
    "name": "solc",
    "version": "0.8.10+commit.fc410830.Emscripten.clang"
  },
  "schemaVersion": "3.4.4",
  "updatedAt": "2022-04-04T18:45:02.394Z",
  "networkType": "ethereum",
  "devdoc": {
    "kind": "dev",
    "methods": {
      "approve(address,uint256)": {
        "details": "See {IERC721-approve}."
      },
      "balanceOf(address)": {
        "details": "See {IERC721-balanceOf}."
      },
      "getApproved(uint256)": {
        "details": "See {IERC721-getApproved}."
      },
      "isApprovedForAll(address,address)": {
        "details": "See {IERC721-isApprovedForAll}."
      },
      "name()": {
        "details": "See {IERC721Metadata-name}."
      },
      "owner()": {
        "details": "Returns the address of the current owner."
      },
      "ownerOf(uint256)": {
        "details": "See {IERC721-ownerOf}."
      },
      "renounceOwnership()": {
        "details": "Leaves the contract without owner. It will not be possible to call `onlyOwner` functions anymore. Can only be called by the current owner. NOTE: Renouncing ownership will leave the contract without an owner, thereby removing any functionality that is only available to the owner."
      },
      "safeTransferFrom(address,address,uint256)": {
        "details": "See {IERC721-safeTransferFrom}."
      },
      "safeTransferFrom(address,address,uint256,bytes)": {
        "details": "See {IERC721-safeTransferFrom}."
      },
      "setApprovalForAll(address,bool)": {
        "details": "See {IERC721-setApprovalForAll}."
      },
      "supportsInterface(bytes4)": {
        "details": "See {IERC165-supportsInterface}."
      },
      "symbol()": {
        "details": "See {IERC721Metadata-symbol}."
      },
      "tokenURI(uint256)": {
        "details": "See {IERC721Metadata-tokenURI}."
      },
      "transferFrom(address,address,uint256)": {
        "details": "See {IERC721-transferFrom}."
      },
      "transferOwnership(address)": {
        "details": "Transfers ownership of the contract to a new account (`newOwner`). Can only be called by the current owner."
      }
    },
    "version": 1
  },
  "userdoc": {
    "kind": "user",
    "methods": {},
    "version": 1
  }
}