{
  "contractName": "RANDOMNFT",
  "abi": [
    {
      "inputs": [
        {
          "internalType": "address",
          "name": "tokenAddress",
          "type": "address"
        }
      ],
      "stateMutability": "nonpayable",
      "type": "constructor"
    },
    {
      "anonymous": false,
      "inputs": [
        {
          "indexed": true,
          "internalType": "address",
          "name": "owner",
          "type": "address"
        },
        {
          "indexed": true,
          "internalType": "address",
          "name": "approved",
          "type": "address"
        },
        {
          "indexed": true,
          "internalType": "uint256",
          "name": "tokenId",
          "type": "uint256"
        }
      ],
      "name": "Approval",
      "type": "event"
    },
    {
      "anonymous": false,
      "inputs": [
        {
          "indexed": true,
          "internalType": "address",
          "name": "owner",
          "type": "address"
        },
        {
          "indexed": true,
          "internalType": "address",
          "name": "operator",
          "type": "address"
        },
        {
          "indexed": false,
          "internalType": "bool",
          "name": "approved",
          "type": "bool"
        }
      ],
      "name": "ApprovalForAll",
      "type": "event"
    },
    {
      "anonymous": false,
      "inputs": [
        {
          "indexed": true,
          "internalType": "address",
          "name": "previousOwner",
          "type": "address"
        },
        {
          "indexed": true,
          "internalType": "address",
          "name": "newOwner",
          "type": "address"
        }
      ],
      "name": "OwnershipTransferred",
      "type": "event"
    },
    {
      "anonymous": false,
      "inputs": [
        {
          "indexed": true,
          "internalType": "address",
          "name": "from",
          "type": "address"
        },
        {
          "indexed": true,
          "internalType": "address",
          "name": "to",
          "type": "address"
        },
        {
          "indexed": true,
          "internalType": "uint256",
          "name": "tokenId",
          "type": "uint256"
        }
      ],
      "name": "Transfer",
      "type": "event"
    },
    {
      "inputs": [
        {
          "internalType": "address",
          "name": "to",
          "type": "address"
        },
        {
          "internalType": "uint256",
          "name": "tokenId",
          "type": "uint256"
        }
      ],
      "name": "approve",
      "outputs": [],
      "stateMutability": "nonpayable",
      "type": "function"
    },
    {
      "inputs": [
        {
          "internalType": "address",
          "name": "owner",
          "type": "address"
        }
      ],
      "name": "balanceOf",
      "outputs": [
        {
          "internalType": "uint256",
          "name": "",
          "type": "uint256"
        }
      ],
      "stateMutability": "view",
      "type": "function",
      "constant": true
    },
    {
      "inputs": [
        {
          "internalType": "uint256",
          "name": "tokenId",
          "type": "uint256"
        }
      ],
      "name": "getApproved",
      "outputs": [
        {
          "internalType": "address",
          "name": "",
          "type": "address"
        }
      ],
      "stateMutability": "view",
      "type": "function",
      "constant": true
    },
    {
      "inputs": [
        {
          "internalType": "address",
          "name": "owner",
          "type": "address"
        },
        {
          "internalType": "address",
          "name": "operator",
          "type": "address"
        }
      ],
      "name": "isApprovedForAll",
      "outputs": [
        {
          "internalType": "bool",
          "name": "",
          "type": "bool"
        }
      ],
      "stateMutability": "view",
      "type": "function",
      "constant": true
    },
    {
      "inputs": [],
      "name": "name",
      "outputs": [
        {
          "internalType": "string",
          "name": "",
          "type": "string"
        }
      ],
      "stateMutability": "view",
      "type": "function",
      "constant": true
    },
    {
      "inputs": [],
      "name": "owner",
      "outputs": [
        {
          "internalType": "address",
          "name": "",
          "type": "address"
        }
      ],
      "stateMutability": "view",
      "type": "function",
      "constant": true
    },
    {
      "inputs": [
        {
          "internalType": "uint256",
          "name": "tokenId",
          "type": "uint256"
        }
      ],
      "name": "ownerOf",
      "outputs": [
        {
          "internalType": "address",
          "name": "",
          "type": "address"
        }
      ],
      "stateMutability": "view",
      "type": "function",
      "constant": true
    },
    {
      "inputs": [],
      "name": "renounceOwnership",
      "outputs": [],
      "stateMutability": "nonpayable",
      "type": "function"
    },
    {
      "inputs": [
        {
          "internalType": "address",
          "name": "operator",
          "type": "address"
        },
        {
          "internalType": "bool",
          "name": "approved",
          "type": "bool"
        }
      ],
      "name": "setApprovalForAll",
      "outputs": [],
      "stateMutability": "nonpayable",
      "type": "function"
    },
    {
      "inputs": [
        {
          "internalType": "bytes4",
          "name": "interfaceId",
          "type": "bytes4"
        }
      ],
      "name": "supportsInterface",
      "outputs": [
        {
          "internalType": "bool",
          "name": "",
          "type": "bool"
        }
      ],
      "stateMutability": "view",
      "type": "function",
      "constant": true
    },
    {
      "inputs": [],
      "name": "symbol",
      "outputs": [
        {
          "internalType": "string",
          "name": "",
          "type": "string"
        }
      ],
      "stateMutability": "view",
      "type": "function",
      "constant": true
    },
    {
      "inputs": [
        {
          "internalType": "uint256",
          "name": "tokenId",
          "type": "uint256"
        }
      ],
      "name": "tokenURI",
      "outputs": [
        {
          "internalType": "string",
          "name": "",
          "type": "string"
        }
      ],
      "stateMutability": "view",
      "type": "function",
      "constant": true
    },
    {
      "inputs": [
        {
          "internalType": "address",
          "name": "newOwner",
          "type": "address"
        }
      ],
      "name": "transferOwnership",
      "outputs": [],
      "stateMutability": "nonpayable",
      "type": "function"
    },
    {
      "inputs": [
        {
          "internalType": "uint256",
          "name": "price",
          "type": "uint256"
        },
        {
          "internalType": "bytes32",
          "name": "encryptHashValue",
          "type": "bytes32"
        }
      ],
      "name": "mintNFT",
      "outputs": [],
      "stateMutability": "nonpayable",
      "type": "function"
    },
    {
      "inputs": [
        {
          "internalType": "string",
          "name": "hash",
          "type": "string"
        }
      ],
      "name": "setHashKey",
      "outputs": [],
      "stateMutability": "nonpayable",
      "type": "function"
    },
    {
      "inputs": [],
      "name": "getHashKey",
      "outputs": [
        {
          "internalType": "string",
          "name": "",
          "type": "string"
        }
      ],
      "stateMutability": "view",
      "type": "function",
      "constant": true
    },
    {
      "inputs": [
        {
          "internalType": "address",
          "name": "account",
          "type": "address"
        }
      ],
      "name": "getAllTokensForUser",
      "outputs": [
        {
          "components": [
            {
              "internalType": "uint256",
              "name": "nftid",
              "type": "uint256"
            },
            {
              "internalType": "uint256",
              "name": "rarity",
              "type": "uint256"
            },
            {
              "internalType": "string",
              "name": "tokenURI",
              "type": "string"
            },
            {
              "internalType": "uint256",
              "name": "createdtime",
              "type": "uint256"
            },
            {
              "internalType": "address",
              "name": "owner",
              "type": "address"
            },
            {
              "internalType": "bool",
              "name": "selling",
              "type": "bool"
            }
          ],
          "internalType": "struct RANDOMNFT.NFTS[]",
          "name": "",
          "type": "tuple[]"
        }
      ],
      "stateMutability": "view",
      "type": "function",
      "constant": true
    },
    {
      "inputs": [
        {
          "internalType": "uint256",
          "name": "NFTID",
          "type": "uint256"
        }
      ],
      "name": "getOwner",
      "outputs": [
        {
          "internalType": "address",
          "name": "",
          "type": "address"
        }
      ],
      "stateMutability": "view",
      "type": "function",
      "constant": true
    },
    {
      "inputs": [
        {
          "internalType": "uint256",
          "name": "NFTID",
          "type": "uint256"
        }
      ],
      "name": "getTokenId",
      "outputs": [
        {
          "internalType": "uint256",
          "name": "",
          "type": "uint256"
        }
      ],
      "stateMutability": "view",
      "type": "function",
      "constant": true
    },
    {
      "inputs": [
        {
          "internalType": "uint256",
          "name": "NFTID",
          "type": "uint256"
        }
      ],
      "name": "getRarity",
      "outputs": [
        {
          "internalType": "uint256",
          "name": "",
          "type": "uint256"
        }
      ],
      "stateMutability": "view",
      "type": "function",
      "constant": true
    },
    {
      "inputs": [
        {
          "internalType": "uint256",
          "name": "NFTID",
          "type": "uint256"
        }
      ],
      "name": "getCreatedTime",
      "outputs": [
        {
          "internalType": "uint256",
          "name": "",
          "type": "uint256"
        }
      ],
      "stateMutability": "view",
      "type": "function",
      "constant": true
    },
    {
      "inputs": [
        {
          "internalType": "uint256",
          "name": "NFTID",
          "type": "uint256"
        }
      ],
      "name": "getSelling",
      "outputs": [
        {
          "internalType": "bool",
          "name": "",
          "type": "bool"
        }
      ],
      "stateMutability": "view",
      "type": "function",
      "constant": true
    },
    {
      "inputs": [
        {
          "internalType": "uint256",
          "name": "NFTID",
          "type": "uint256"
        }
      ],
      "name": "setSelling",
      "outputs": [],
      "stateMutability": "nonpayable",
      "type": "function"
    },
    {
      "inputs": [
        {
          "internalType": "address",
          "name": "from",
          "type": "address"
        },
        {
          "internalType": "address",
          "name": "to",
          "type": "address"
        },
        {
          "internalType": "uint256",
          "name": "tokenId",
          "type": "uint256"
        }
      ],
      "name": "transferFrom",
      "outputs": [],
      "stateMutability": "nonpayable",
      "type": "function"
    },
    {
      "inputs": [
        {
          "internalType": "address",
          "name": "from",
          "type": "address"
        },
        {
          "internalType": "address",
          "name": "to",
          "type": "address"
        },
        {
          "internalType": "uint256",
          "name": "tokenId",
          "type": "uint256"
        }
      ],
      "name": "safeTransferFrom",
      "outputs": [],
      "stateMutability": "nonpayable",
      "type": "function"
    },
    {
      "inputs": [
        {
          "internalType": "address",
          "name": "from",
          "type": "address"
        },
        {
          "internalType": "address",
          "name": "to",
          "type": "address"
        },
        {
          "internalType": "uint256",
          "name": "tokenId",
          "type": "uint256"
        },
        {
          "internalType": "bytes",
          "name": "_data",
          "type": "bytes"
        }
      ],
      "name": "safeTransferFrom",
      "outputs": [],
      "stateMutability": "nonpayable",
      "type": "function"
    }
  ],
  "bytecode": "0x6080604052600a80546001600160a01b03191673eb24e827c4b11f16900c37364210fd7f5c5225551790556000600d553480156200003c57600080fd5b50604051620026de380380620026de8339810160408190526200005f916200021c565b60408051808201825260038082526213919560ea1b6020808401828152855180870190965292855284015281519192916200009d9160009162000176565b508051620000b390600190602084019062000176565b505050620000d0620000ca6200012060201b60201c565b62000124565b600980546001600160a01b0319166001600160a01b038316179055604080518082019091526004808252633131313160e01b60209092019182526200011891600b9162000176565b50506200028b565b3390565b600780546001600160a01b038381166001600160a01b0319831681179093556040519116919082907f8be0079c531659141344cd1fd0a4f28419497f9722a3daafe3b4186f6b6457e090600090a35050565b82805462000184906200024e565b90600052602060002090601f016020900481019282620001a85760008555620001f3565b82601f10620001c357805160ff1916838001178555620001f3565b82800160010185558215620001f3579182015b82811115620001f3578251825591602001919060010190620001d6565b506200020192915062000205565b5090565b5b8082111562000201576000815560010162000206565b6000602082840312156200022f57600080fd5b81516001600160a01b03811681146200024757600080fd5b9392505050565b600181811c908216806200026357607f821691505b602082108114156200028557634e487b7160e01b600052602260045260246000fd5b50919050565b612443806200029b6000396000f3fe608060405234801561001057600080fd5b506004361061018e5760003560e01c806382de8fe9116100de578063c41a360a11610097578063deffb29611610071578063deffb29614610395578063e985e9c5146103d3578063f2fde38b1461040f578063f521a9821461042257600080fd5b8063c41a360a1461035c578063c87b56dd1461036f578063d7a2b0311461038257600080fd5b806382de8fe9146102d05780638da5cb5b146102f057806395d89b4114610301578063a22cb46514610309578063b364acd61461031c578063b88d4fde1461034957600080fd5b806323b872dd1161014b5780634e77925d116101255780634e77925d1461029a5780636352211e146102a257806370a08231146102b5578063715018a6146102c857600080fd5b806323b872dd1461025157806342842e0e14610264578063487586971461027757600080fd5b806301ffc9a71461019357806306fdde03146101bb578063081812fc146101d0578063095ea7b3146101fb57806314ff5ea3146102105780631dc4009b1461023e575b600080fd5b6101a66101a1366004611d73565b610445565b60405190151581526020015b60405180910390f35b6101c3610497565b6040516101b29190611de8565b6101e36101de366004611dfb565b610529565b6040516001600160a01b0390911681526020016101b2565b61020e610209366004611e30565b6105b6565b005b61023061021e366004611dfb565b6000908152600e602052604090205490565b6040519081526020016101b2565b61020e61024c366004611ee6565b6106cc565b61020e61025f366004611f2f565b61070d565b61020e610272366004611f2f565b610781565b610230610285366004611dfb565b6000908152600e602052604090206001015490565b6101c3610805565b6101e36102b0366004611dfb565b61083f565b6102306102c3366004611f6b565b6108b6565b61020e61093d565b6102e36102de366004611f6b565b610973565b6040516101b29190611f86565b6007546001600160a01b03166101e3565b6101c3610bc1565b61020e61031736600461203e565b610bd0565b6101a661032a366004611dfb565b6000908152600e6020526040902060040154600160a01b900460ff1690565b61020e610357366004612075565b610bdb565b6101e361036a366004611dfb565b610c5d565b6101c361037d366004611dfb565b610c68565b61020e6103903660046120f1565b610ddf565b61020e6103a3366004611dfb565b6000908152600e60205260409020600401805460ff60a01b198116600160a01b9182900460ff1615909102179055565b6101a66103e1366004612113565b6001600160a01b03918216600090815260056020908152604080832093909416825291909152205460ff1690565b61020e61041d366004611f6b565b611268565b610230610430366004611dfb565b6000908152600e602052604090206003015490565b60006001600160e01b031982166380ac58cd60e01b148061047657506001600160e01b03198216635b5e139f60e01b145b8061049157506301ffc9a760e01b6001600160e01b03198316145b92915050565b6060600080546104a690612146565b80601f01602080910402602001604051908101604052809291908181526020018280546104d290612146565b801561051f5780601f106104f45761010080835404028352916020019161051f565b820191906000526020600020905b81548152906001019060200180831161050257829003601f168201915b5050505050905090565b600061053482611303565b61059a5760405162461bcd60e51b815260206004820152602c60248201527f4552433732313a20617070726f76656420717565727920666f72206e6f6e657860448201526b34b9ba32b73a103a37b5b2b760a11b60648201526084015b60405180910390fd5b506000908152600460205260409020546001600160a01b031690565b60006105c18261083f565b9050806001600160a01b0316836001600160a01b0316141561062f5760405162461bcd60e51b815260206004820152602160248201527f4552433732313a20617070726f76616c20746f2063757272656e74206f776e656044820152603960f91b6064820152608401610591565b336001600160a01b038216148061064b575061064b81336103e1565b6106bd5760405162461bcd60e51b815260206004820152603860248201527f4552433732313a20617070726f76652063616c6c6572206973206e6f74206f7760448201527f6e6572206e6f7220617070726f76656420666f7220616c6c00000000000000006064820152608401610591565b6106c78383611320565b505050565b6007546001600160a01b031633146106f65760405162461bcd60e51b81526004016105919061217b565b805161070990600b906020840190611c83565b5050565b6000818152600e6020526040902060040154600160a01b900460ff16156107765760405162461bcd60e51b815260206004820152601c60248201527f53656c6c696e67204e4654206e6f74207472616e7366657261626c65000000006044820152606401610591565b6106c783838361138e565b6000818152600e6020526040902060040154600160a01b900460ff16156107ea5760405162461bcd60e51b815260206004820152601c60248201527f53656c6c696e67204e4654206e6f74207472616e7366657261626c65000000006044820152606401610591565b6106c783838360405180602001604052806000815250610bdb565b6007546060906001600160a01b031633146108325760405162461bcd60e51b81526004016105919061217b565b600b80546104a690612146565b6000818152600260205260408120546001600160a01b0316806104915760405162461bcd60e51b815260206004820152602960248201527f4552433732313a206f776e657220717565727920666f72206e6f6e657869737460448201526832b73a103a37b5b2b760b91b6064820152608401610591565b60006001600160a01b0382166109215760405162461bcd60e51b815260206004820152602a60248201527f4552433732313a2062616c616e636520717565727920666f7220746865207a65604482015269726f206164647265737360b01b6064820152608401610591565b506001600160a01b031660009081526003602052604090205490565b6007546001600160a01b031633146109675760405162461bcd60e51b81526004016105919061217b565b610971600061152a565b565b60606000610980836108b6565b9050806109c05760408051600080825260208201909252906109b8565b6109a5611d07565b81526020019060019003908161099d5790505b509392505050565b60008167ffffffffffffffff8111156109db576109db611e5a565b604051908082528060200260200182016040528015610a1457816020015b610a01611d07565b8152602001906001900390816109f95790505b5090506000610a2260085490565b9050600060015b828111610bb057866001600160a01b0316610a438261083f565b6001600160a01b03161415610b9e57600e60008281526020019081526020016000206040518060c00160405290816000820154815260200160018201548152602001600282018054610a9490612146565b80601f0160208091040260200160405190810160405280929190818152602001828054610ac090612146565b8015610b0d5780601f10610ae257610100808354040283529160200191610b0d565b820191906000526020600020905b815481529060010190602001808311610af057829003601f168201915b5050509183525050600382015460208201526004909101546001600160a01b0381166040830152600160a01b900460ff1615156060909101528451859084908110610b5a57610b5a6121b0565b6020026020010181905250610b6e81610c68565b848381518110610b8057610b806121b0565b6020026020010151604001819052508180610b9a906121dc565b9250505b80610ba8816121dc565b915050610a29565b509195945050505050565b50919050565b6060600180546104a690612146565b61070933838361157c565b610be5338361164b565b610c4b5760405162461bcd60e51b815260206004820152603160248201527f4552433732313a207472616e736665722063616c6c6572206973206e6f74206f6044820152701ddb995c881b9bdc88185c1c1c9bdd9959607a1b6064820152608401610591565b610c5784848484611731565b50505050565b60006104918261083f565b6060610c7382611303565b610cd95760405162461bcd60e51b815260206004820152603160248201527f45524337323155524953746f726167653a2055524920717565727920666f72206044820152703737b732bc34b9ba32b73a103a37b5b2b760791b6064820152608401610591565b60008281526006602052604081208054610cf290612146565b80601f0160208091040260200160405190810160405280929190818152602001828054610d1e90612146565b8015610d6b5780601f10610d4057610100808354040283529160200191610d6b565b820191906000526020600020905b815481529060010190602001808311610d4e57829003601f168201915b505050505090506000610d8960408051602081019091526000815290565b9050805160001415610d9c575092915050565b815115610dce578082604051602001610db69291906121f7565b60405160208183030381529060405292505050919050565b610dd784611764565b949350505050565b610de88261183c565b6000610df582600c541490565b9050600181151514610e415760405162461bcd60e51b8152602060048201526015602482015274092dcecc2d8d2c840a8e4c2dce6cccae44090c2e6d605b1b6044820152606401610591565b600954600a546040516323b872dd60e01b81523360048201526001600160a01b039182166024820152604481018690529116906323b872dd906064016020604051808303816000875af1158015610e9c573d6000803e3d6000fd5b505050506040513d601f19601f82011682018060405250810190610ec09190612226565b5060006064424433604051602001610efd93929190928352602083019190915260601b6bffffffffffffffffffffffff1916604082015260540190565b6040516020818303038152906040528051906020012060001c610f209190612259565b90506001811015610f35576005600d55610ffe565b60018110158015610f465750600681105b15610f55576004600d55610ffe565b60068110158015610f665750601081105b15610f75576003600d55610ffe565b60108110158015610f865750603381105b15610f95576002600d55610ffe565b60338110158015610fa7575060658111155b15610fb6576001600d55610ffe565b60405162461bcd60e51b815260206004820152601760248201527f4572726f7220696e2067657474696e67207261726974790000000000000000006044820152606401610591565b61100c600880546001019055565b61101e3361101960085490565b61187c565b600d546001141561105c5761105761103560085490565b604051806040016040528060048152602001630c55549360e21b815250611896565b61117f565b600d54600214156110955761105761107360085490565b604051806040016040528060048152602001630c95549360e21b815250611896565b600d54600314156110ce576110576110ac60085490565b604051806040016040528060048152602001630cd5549360e21b815250611896565b600d5460041415611107576110576110e560085490565b604051806040016040528060048152602001630d15549360e21b815250611896565b600d54600514156111405761105761111e60085490565b604051806040016040528060048152602001630d55549360e21b815250611896565b60405162461bcd60e51b8152602060048201526014602482015273115c9c9bdc881a5b8819d95d1d1a5b99c815549360621b6044820152606401610591565b6040518060c0016040528061119360085490565b8152602001600d548152602001604051806020016040528060008152508152602001428152602001336001600160a01b0316815260200160001515815250600e60006111de60085490565b81526020019081526020016000206000820151816000015560208201518160010155604082015181600201908051906020019061121c929190611c83565b506060820151600382015560808201516004909101805460a0909301511515600160a01b026001600160a81b03199093166001600160a01b039092169190911791909117905550505050565b6007546001600160a01b031633146112925760405162461bcd60e51b81526004016105919061217b565b6001600160a01b0381166112f75760405162461bcd60e51b815260206004820152602660248201527f4f776e61626c653a206e6577206f776e657220697320746865207a65726f206160448201526564647265737360d01b6064820152608401610591565b6113008161152a565b50565b6000908152600260205260409020546001600160a01b0316151590565b600081815260046020526040902080546001600160a01b0319166001600160a01b03841690811790915581906113558261083f565b6001600160a01b03167f8c5be1e5ebec7d5bd14f71427d1e84f3dd0314c0f7b2291e5b200ac8c7c3b92560405160405180910390a45050565b826001600160a01b03166113a18261083f565b6001600160a01b0316146114055760405162461bcd60e51b815260206004820152602560248201527f4552433732313a207472616e736665722066726f6d20696e636f72726563742060448201526437bbb732b960d91b6064820152608401610591565b6001600160a01b0382166114675760405162461bcd60e51b8152602060048201526024808201527f4552433732313a207472616e7366657220746f20746865207a65726f206164646044820152637265737360e01b6064820152608401610591565b611472600082611320565b6001600160a01b038316600090815260036020526040812080546001929061149b90849061226d565b90915550506001600160a01b03821660009081526003602052604081208054600192906114c9908490612284565b909155505060008181526002602052604080822080546001600160a01b0319166001600160a01b0386811691821790925591518493918716917fddf252ad1be2c89b69c2b068fc378daa952ba7f163c4a11628f55a4df523b3ef91a4505050565b600780546001600160a01b038381166001600160a01b0319831681179093556040519116919082907f8be0079c531659141344cd1fd0a4f28419497f9722a3daafe3b4186f6b6457e090600090a35050565b816001600160a01b0316836001600160a01b031614156115de5760405162461bcd60e51b815260206004820152601960248201527f4552433732313a20617070726f766520746f2063616c6c6572000000000000006044820152606401610591565b6001600160a01b03838116600081815260056020908152604080832094871680845294825291829020805460ff191686151590811790915591519182527f17307eab39ab6107e8899845ad3d59bd9653f200f220920489ca2b5937696c31910160405180910390a3505050565b600061165682611303565b6116b75760405162461bcd60e51b815260206004820152602c60248201527f4552433732313a206f70657261746f7220717565727920666f72206e6f6e657860448201526b34b9ba32b73a103a37b5b2b760a11b6064820152608401610591565b60006116c28361083f565b9050806001600160a01b0316846001600160a01b031614806116fd5750836001600160a01b03166116f284610529565b6001600160a01b0316145b80610dd757506001600160a01b0380821660009081526005602090815260408083209388168352929052205460ff16610dd7565b61173c84848461138e565b61174884848484611921565b610c575760405162461bcd60e51b81526004016105919061229c565b606061176f82611303565b6117d35760405162461bcd60e51b815260206004820152602f60248201527f4552433732314d657461646174613a2055524920717565727920666f72206e6f60448201526e3732bc34b9ba32b73a103a37b5b2b760891b6064820152608401610591565b60006117ea60408051602081019091526000815290565b9050600081511161180a5760405180602001604052806000815250611835565b8061181484611a1f565b6040516020016118259291906121f7565b6040516020818303038152906040525b9392505050565b600061184782611a1f565b905080600b60405160200161185d9291906122ee565b60408051601f198184030181529190528051602090910120600c555050565b610709828260405180602001604052806000815250611b1d565b61189f82611303565b6119025760405162461bcd60e51b815260206004820152602e60248201527f45524337323155524953746f726167653a2055524920736574206f66206e6f6e60448201526d32bc34b9ba32b73a103a37b5b2b760911b6064820152608401610591565b600082815260066020908152604090912082516106c792840190611c83565b60006001600160a01b0384163b15611a1457604051630a85bd0160e11b81526001600160a01b0385169063150b7a029061196590339089908890889060040161239f565b6020604051808303816000875af19250505080156119a0575060408051601f3d908101601f1916820190925261199d918101906123dc565b60015b6119fa573d8080156119ce576040519150601f19603f3d011682016040523d82523d6000602084013e6119d3565b606091505b5080516119f25760405162461bcd60e51b81526004016105919061229c565b805181602001fd5b6001600160e01b031916630a85bd0160e11b149050610dd7565b506001949350505050565b606081611a435750506040805180820190915260018152600360fc1b602082015290565b8160005b8115611a6d5780611a57816121dc565b9150611a669050600a836123f9565b9150611a47565b60008167ffffffffffffffff811115611a8857611a88611e5a565b6040519080825280601f01601f191660200182016040528015611ab2576020820181803683370190505b5090505b8415610dd757611ac760018361226d565b9150611ad4600a86612259565b611adf906030612284565b60f81b818381518110611af457611af46121b0565b60200101906001600160f81b031916908160001a905350611b16600a866123f9565b9450611ab6565b611b278383611b50565b611b346000848484611921565b6106c75760405162461bcd60e51b81526004016105919061229c565b6001600160a01b038216611ba65760405162461bcd60e51b815260206004820181905260248201527f4552433732313a206d696e7420746f20746865207a65726f20616464726573736044820152606401610591565b611baf81611303565b15611bfc5760405162461bcd60e51b815260206004820152601c60248201527f4552433732313a20746f6b656e20616c7265616479206d696e746564000000006044820152606401610591565b6001600160a01b0382166000908152600360205260408120805460019290611c25908490612284565b909155505060008181526002602052604080822080546001600160a01b0319166001600160a01b03861690811790915590518392907fddf252ad1be2c89b69c2b068fc378daa952ba7f163c4a11628f55a4df523b3ef908290a45050565b828054611c8f90612146565b90600052602060002090601f016020900481019282611cb15760008555611cf7565b82601f10611cca57805160ff1916838001178555611cf7565b82800160010185558215611cf7579182015b82811115611cf7578251825591602001919060010190611cdc565b50611d03929150611d48565b5090565b6040518060c001604052806000815260200160008152602001606081526020016000815260200160006001600160a01b031681526020016000151581525090565b5b80821115611d035760008155600101611d49565b6001600160e01b03198116811461130057600080fd5b600060208284031215611d8557600080fd5b813561183581611d5d565b60005b83811015611dab578181015183820152602001611d93565b83811115610c575750506000910152565b60008151808452611dd4816020860160208601611d90565b601f01601f19169290920160200192915050565b6020815260006118356020830184611dbc565b600060208284031215611e0d57600080fd5b5035919050565b80356001600160a01b0381168114611e2b57600080fd5b919050565b60008060408385031215611e4357600080fd5b611e4c83611e14565b946020939093013593505050565b634e487b7160e01b600052604160045260246000fd5b600067ffffffffffffffff80841115611e8b57611e8b611e5a565b604051601f8501601f19908116603f01168101908282118183101715611eb357611eb3611e5a565b81604052809350858152868686011115611ecc57600080fd5b858560208301376000602087830101525050509392505050565b600060208284031215611ef857600080fd5b813567ffffffffffffffff811115611f0f57600080fd5b8201601f81018413611f2057600080fd5b610dd784823560208401611e70565b600080600060608486031215611f4457600080fd5b611f4d84611e14565b9250611f5b60208501611e14565b9150604084013590509250925092565b600060208284031215611f7d57600080fd5b61183582611e14565b60006020808301818452808551808352604092508286019150828160051b87010184880160005b8381101561202257603f19898403018552815160c0815185528882015189860152878201518189870152611fe382870182611dbc565b606084810151908801526080808501516001600160a01b03169088015260a0938401511515939096019290925250509386019390860190600101611fad565b509098975050505050505050565b801515811461130057600080fd5b6000806040838503121561205157600080fd5b61205a83611e14565b9150602083013561206a81612030565b809150509250929050565b6000806000806080858703121561208b57600080fd5b61209485611e14565b93506120a260208601611e14565b925060408501359150606085013567ffffffffffffffff8111156120c557600080fd5b8501601f810187136120d657600080fd5b6120e587823560208401611e70565b91505092959194509250565b6000806040838503121561210457600080fd5b50508035926020909101359150565b6000806040838503121561212657600080fd5b61212f83611e14565b915061213d60208401611e14565b90509250929050565b600181811c9082168061215a57607f821691505b60208210811415610bbb57634e487b7160e01b600052602260045260246000fd5b6020808252818101527f4f776e61626c653a2063616c6c6572206973206e6f7420746865206f776e6572604082015260600190565b634e487b7160e01b600052603260045260246000fd5b634e487b7160e01b600052601160045260246000fd5b60006000198214156121f0576121f06121c6565b5060010190565b60008351612209818460208801611d90565b83519083019061221d818360208801611d90565b01949350505050565b60006020828403121561223857600080fd5b815161183581612030565b634e487b7160e01b600052601260045260246000fd5b60008261226857612268612243565b500690565b60008282101561227f5761227f6121c6565b500390565b60008219821115612297576122976121c6565b500190565b60208082526032908201527f4552433732313a207472616e7366657220746f206e6f6e20455243373231526560408201527131b2b4bb32b91034b6b83632b6b2b73a32b960711b606082015260800190565b6000835160206123018285838901611d90565b845491840191600090600181811c908083168061231f57607f831692505b85831081141561233d57634e487b7160e01b85526022600452602485fd5b80801561235157600181146123625761238f565b60ff1985168852838801955061238f565b60008b81526020902060005b858110156123875781548a82015290840190880161236e565b505083880195505b50939a9950505050505050505050565b6001600160a01b03858116825284166020820152604081018390526080606082018190526000906123d290830184611dbc565b9695505050505050565b6000602082840312156123ee57600080fd5b815161183581611d5d565b60008261240857612408612243565b50049056fea2646970667358221220843f74c25cb9e0ed9c6385c27fe37b8664f532222e5de0a73cefec77148cbdef64736f6c634300080a0033",
  "immutableReferences": {},
  "source": "// SPDX-License-Identifier: MIT\r\npragma solidity ^0.8.0;\r\n\r\nimport \"@openzeppelin/contracts/access/Ownable.sol\";\r\nimport \"@openzeppelin/contracts/utils/Strings.sol\";\r\nimport \"@openzeppelin/contracts/utils/Counters.sol\";\r\nimport \"@openzeppelin/contracts/token/ERC721/extensions/ERC721URIStorage.sol\";\r\nimport \"@openzeppelin/contracts/token/ERC721/ERC721.sol\";\r\nimport \"./JTOKEN.sol\";\r\n\r\ncontract RANDOMNFT is ERC721URIStorage, Ownable {\r\n    using Counters for Counters.Counter;\r\n    Counters.Counter private _tokenIds;\r\n    address JTokenAddress;\r\n    address admin = 0xeb24E827C4B11F16900c37364210fD7f5c522555;\r\n    string HashKey;\r\n    bytes32 hashValue;\r\n    uint rarity = 0;\r\n\r\n    struct NFTS {\r\n        uint nftid;\r\n        uint rarity;\r\n        string tokenURI;\r\n        uint256 createdtime;\r\n        address owner;\r\n        bool selling;\r\n    }\r\n\r\n    mapping(uint256 => NFTS) private _tokenDetails;\r\n\r\n    constructor(address tokenAddress) ERC721(\"NFT\", \"NFT\") {\r\n        JTokenAddress = tokenAddress;\r\n        HashKey = \"1111\";\r\n    }\r\n\r\n    function mintNFT(uint price, bytes32 encryptHashValue) public {\r\n        setHash(price);\r\n        bool checkHash = getHashValue(encryptHashValue);    \r\n        require(checkHash == true, \"Invalid Transfer Hash\");\r\n        ERC20(JTokenAddress).transferFrom(msg.sender, admin, price);\r\n\r\n        uint getrarity = uint(keccak256(abi.encodePacked(block.timestamp, block.difficulty, msg.sender))) % 100;\r\n\r\n        if(getrarity < 1) {\r\n            rarity = 5;\r\n        } else if (getrarity >= 1 && getrarity < 6) {\r\n            rarity = 4;\r\n        } else if (getrarity >= 6 && getrarity < 16) {\r\n            rarity = 3;\r\n        } else if (getrarity >= 16 && getrarity < 51) {\r\n            rarity = 2;\r\n        } else if (getrarity >= 51 && getrarity <= 101){\r\n            rarity = 1;\r\n        } else {\r\n            revert(\"Error in getting rarity\");\r\n        }\r\n\r\n        _tokenIds.increment();\r\n        _safeMint(msg.sender, _tokenIds.current());\r\n\r\n        if(rarity == 1) {\r\n            _setTokenURI(_tokenIds.current(), \"1URL\");\r\n        } else if (rarity == 2 ) {\r\n            _setTokenURI(_tokenIds.current(), \"2URL\");  \r\n        } else if (rarity == 3 ) {\r\n            _setTokenURI(_tokenIds.current(), \"3URL\");  \r\n        } else if (rarity == 4 ) {\r\n            _setTokenURI(_tokenIds.current(), \"4URL\");\r\n        } else if (rarity == 5 ) {\r\n            _setTokenURI(_tokenIds.current(), \"5URL\");\r\n        } else {\r\n            revert(\"Error in getting URL\");\r\n        }\r\n\r\n        _tokenDetails[_tokenIds.current()] = NFTS(_tokenIds.current(), rarity, \"\", block.timestamp, msg.sender, false);\r\n        \r\n    }\r\n\r\n    function setHashKey(string memory hash) public onlyOwner {\r\n        HashKey = hash;\r\n    }\r\n\r\n    function setHash(uint _hashValue) private {\r\n        string memory hash = Strings.toString(_hashValue);\r\n        hashValue = keccak256(abi.encodePacked(hash, HashKey));\r\n    }\r\n\r\n    function getHashKey() public onlyOwner view returns (string memory) {\r\n        return HashKey;\r\n    }\r\n\r\n    function getHashValue(bytes32 checkHashValue) private view returns (bool) {\r\n        return checkHashValue == hashValue;\r\n    }\r\n\r\n    //GET ALL NFT FOR THE ACCOUNT OWN\r\n    function getAllTokensForUser(address account) public view returns (NFTS[] memory) {\r\n        uint256 tokenCount = balanceOf(account);\r\n        if (tokenCount == 0) {\r\n            return new NFTS[](0);\r\n        } else {\r\n            NFTS[] memory result = new NFTS[](tokenCount);\r\n            uint256 totalNFTs = _tokenIds.current();\r\n            uint256 resultIndex = 0;\r\n            for (uint i = 1; i <= totalNFTs; i++) {\r\n                if (ownerOf(i) == account) {\r\n                    // result[resultIndex] = i;\r\n                    result[resultIndex] = _tokenDetails[i];\r\n                    result[resultIndex].tokenURI = tokenURI(i);\r\n                    resultIndex++;\r\n                }\r\n            }\r\n            return result;\r\n        }\r\n    }\r\n\r\n    function getOwner (uint256 NFTID) external view returns (address) {\r\n        return ownerOf(NFTID);\r\n    }\r\n    function getTokenId (uint256 NFTID) external view returns (uint256) {\r\n        return _tokenDetails[NFTID].nftid;\r\n    }\r\n    function getRarity (uint256 NFTID) external view returns (uint256) {\r\n        return _tokenDetails[NFTID].rarity;\r\n    }\r\n    function getCreatedTime (uint256 NFTID) external view returns (uint256) {\r\n        return _tokenDetails[NFTID].createdtime;\r\n    }\r\n    function getSelling (uint256 NFTID) external view returns (bool) {\r\n        return _tokenDetails[NFTID].selling;\r\n    }\r\n    function setSelling (uint256 NFTID) external {\r\n        _tokenDetails[NFTID].selling = !_tokenDetails[NFTID].selling;\r\n    }\r\n\r\n    function transferFrom(address from, address to, uint256 tokenId) public override {\r\n        require(_tokenDetails[tokenId].selling == false, \"Selling NFT not transferable\");\r\n        _transfer(from, to, tokenId);\r\n    }\r\n\r\n    function safeTransferFrom(\r\n        address from,\r\n        address to,\r\n        uint256 tokenId\r\n    ) public virtual override {\r\n        require(_tokenDetails[tokenId].selling == false, \"Selling NFT not transferable\");\r\n        safeTransferFrom(from, to, tokenId, \"\");\r\n    }\r\n\r\n}",
  "sourcePath": "C:\\xampp\\htdocs\\blockchain\\contracts\\RANDOMNFT.sol",
  "compiler": {
    "name": "solc",
    "version": "0.8.10+commit.fc410830.Emscripten.clang"
  },
  "schemaVersion": "3.4.4",
  "updatedAt": "2022-04-01T15:06:41.850Z",
  "networkType": "ethereum",
  "devdoc": {
    "kind": "dev",
    "methods": {
      "approve(address,uint256)": {
        "details": "See {IERC721-approve}."
      },
      "balanceOf(address)": {
        "details": "See {IERC721-balanceOf}."
      },
      "getApproved(uint256)": {
        "details": "See {IERC721-getApproved}."
      },
      "isApprovedForAll(address,address)": {
        "details": "See {IERC721-isApprovedForAll}."
      },
      "name()": {
        "details": "See {IERC721Metadata-name}."
      },
      "owner()": {
        "details": "Returns the address of the current owner."
      },
      "ownerOf(uint256)": {
        "details": "See {IERC721-ownerOf}."
      },
      "renounceOwnership()": {
        "details": "Leaves the contract without owner. It will not be possible to call `onlyOwner` functions anymore. Can only be called by the current owner. NOTE: Renouncing ownership will leave the contract without an owner, thereby removing any functionality that is only available to the owner."
      },
      "safeTransferFrom(address,address,uint256)": {
        "details": "See {IERC721-safeTransferFrom}."
      },
      "safeTransferFrom(address,address,uint256,bytes)": {
        "details": "See {IERC721-safeTransferFrom}."
      },
      "setApprovalForAll(address,bool)": {
        "details": "See {IERC721-setApprovalForAll}."
      },
      "supportsInterface(bytes4)": {
        "details": "See {IERC165-supportsInterface}."
      },
      "symbol()": {
        "details": "See {IERC721Metadata-symbol}."
      },
      "tokenURI(uint256)": {
        "details": "See {IERC721Metadata-tokenURI}."
      },
      "transferFrom(address,address,uint256)": {
        "details": "See {IERC721-transferFrom}."
      },
      "transferOwnership(address)": {
        "details": "Transfers ownership of the contract to a new account (`newOwner`). Can only be called by the current owner."
      }
    },
    "version": 1
  },
  "userdoc": {
    "kind": "user",
    "methods": {},
    "version": 1
  }
}